{
  "_format": "hh-sol-artifact-1",
  "contractName": "MockENS",
  "sourceName": "contracts/MockENS.sol",
  "abi": [
    {
      "inputs": [],
      "name": "NotAuthorized",
      "type": "error"
    },
    {
      "inputs": [],
      "name": "NotOwner",
      "type": "error"
    },
    {
      "anonymous": false,
      "inputs": [
        {
          "indexed": true,
          "internalType": "bytes32",
          "name": "node",
          "type": "bytes32"
        },
        {
          "indexed": true,
          "internalType": "bytes32",
          "name": "label",
          "type": "bytes32"
        },
        {
          "indexed": true,
          "internalType": "address",
          "name": "owner",
          "type": "address"
        }
      ],
      "name": "NewOwner",
      "type": "event"
    },
    {
      "anonymous": false,
      "inputs": [
        {
          "indexed": true,
          "internalType": "bytes32",
          "name": "node",
          "type": "bytes32"
        },
        {
          "indexed": true,
          "internalType": "address",
          "name": "resolver",
          "type": "address"
        }
      ],
      "name": "NewResolver",
      "type": "event"
    },
    {
      "anonymous": false,
      "inputs": [
        {
          "indexed": true,
          "internalType": "bytes32",
          "name": "node",
          "type": "bytes32"
        },
        {
          "indexed": true,
          "internalType": "uint64",
          "name": "ttl",
          "type": "uint64"
        }
      ],
      "name": "NewTTL",
      "type": "event"
    },
    {
      "anonymous": false,
      "inputs": [
        {
          "indexed": true,
          "internalType": "bytes32",
          "name": "node",
          "type": "bytes32"
        },
        {
          "indexed": true,
          "internalType": "address",
          "name": "owner",
          "type": "address"
        }
      ],
      "name": "Transfer",
      "type": "event"
    },
    {
      "inputs": [
        {
          "internalType": "bytes32",
          "name": "node",
          "type": "bytes32"
        }
      ],
      "name": "owner",
      "outputs": [
        {
          "internalType": "address",
          "name": "",
          "type": "address"
        }
      ],
      "stateMutability": "view",
      "type": "function"
    },
    {
      "inputs": [
        {
          "internalType": "bytes32",
          "name": "node",
          "type": "bytes32"
        }
      ],
      "name": "owners",
      "outputs": [
        {
          "internalType": "address",
          "name": "owner",
          "type": "address"
        }
      ],
      "stateMutability": "view",
      "type": "function"
    },
    {
      "inputs": [
        {
          "internalType": "bytes32",
          "name": "node",
          "type": "bytes32"
        }
      ],
      "name": "resolver",
      "outputs": [
        {
          "internalType": "address",
          "name": "",
          "type": "address"
        }
      ],
      "stateMutability": "view",
      "type": "function"
    },
    {
      "inputs": [
        {
          "internalType": "bytes32",
          "name": "node",
          "type": "bytes32"
        }
      ],
      "name": "resolvers",
      "outputs": [
        {
          "internalType": "address",
          "name": "resolver",
          "type": "address"
        }
      ],
      "stateMutability": "view",
      "type": "function"
    },
    {
      "inputs": [
        {
          "internalType": "bytes32",
          "name": "node",
          "type": "bytes32"
        },
        {
          "internalType": "address",
          "name": "newOwner",
          "type": "address"
        }
      ],
      "name": "setNodeOwner",
      "outputs": [],
      "stateMutability": "nonpayable",
      "type": "function"
    },
    {
      "inputs": [
        {
          "internalType": "bytes32",
          "name": "node",
          "type": "bytes32"
        },
        {
          "internalType": "address",
          "name": "newOwner",
          "type": "address"
        }
      ],
      "name": "setOwner",
      "outputs": [],
      "stateMutability": "nonpayable",
      "type": "function"
    },
    {
      "inputs": [
        {
          "internalType": "bytes32",
          "name": "node",
          "type": "bytes32"
        },
        {
          "internalType": "address",
          "name": "newResolver",
          "type": "address"
        }
      ],
      "name": "setResolver",
      "outputs": [],
      "stateMutability": "nonpayable",
      "type": "function"
    },
    {
      "inputs": [
        {
          "internalType": "bytes32",
          "name": "node",
          "type": "bytes32"
        },
        {
          "internalType": "bytes32",
          "name": "label",
          "type": "bytes32"
        },
        {
          "internalType": "address",
          "name": "newOwner",
          "type": "address"
        }
      ],
      "name": "setSubnodeOwner",
      "outputs": [],
      "stateMutability": "nonpayable",
      "type": "function"
    },
    {
      "inputs": [
        {
          "internalType": "bytes32",
          "name": "node",
          "type": "bytes32"
        },
        {
          "internalType": "uint64",
          "name": "newTTL",
          "type": "uint64"
        }
      ],
      "name": "setTTL",
      "outputs": [],
      "stateMutability": "nonpayable",
      "type": "function"
    },
    {
      "inputs": [
        {
          "internalType": "bytes32",
          "name": "node",
          "type": "bytes32"
        }
      ],
      "name": "ttl",
      "outputs": [
        {
          "internalType": "uint64",
          "name": "",
          "type": "uint64"
        }
      ],
      "stateMutability": "view",
      "type": "function"
    },
    {
      "inputs": [
        {
          "internalType": "bytes32",
          "name": "node",
          "type": "bytes32"
        }
      ],
      "name": "ttls",
      "outputs": [
        {
          "internalType": "uint64",
          "name": "ttl",
          "type": "uint64"
        }
      ],
      "stateMutability": "view",
      "type": "function"
    }
  ],
  "bytecode": "0x6080806040523460155761047c908161001a8239f35b5f80fdfe6080806040526004361015610012575f80fd5b5f3560e01c9081630178b8bf1461042b5750806302571be31461009557806306ab59231461035b57806314ab9038146102d157806316a25cbd146100fc5780631896f70a146102365780635b0fc9c3146101785780637161ad19146101305780638a200479146100fc578063c3a7bb90146100ca5763fb8ad6ff14610095575f80fd5b346100c65760203660031901126100c6576004355f525f602052602060018060a01b0360405f205416604051908152f35b5f80fd5b346100c65760203660031901126100c6576004355f526001602052602060018060a01b0360405f205416604051908152f35b346100c65760203660031901126100c6576004355f526002602052602067ffffffffffffffff60405f205416604051908152f35b346100c65760403660031901126100c657610149610459565b6004355f90815260208190526040902080546001600160a01b0319166001600160a01b03909216919091179055005b346100c65760403660031901126100c657600435610194610459565b815f525f60205260018060a01b0360405f20541633141580610217575b610208575f82815260208190526040812080546001600160a01b0319166001600160a01b039390931692831790559091907fd4735d920b0f87494915f556dd9b54c8f309026070caea5c737245152564d2669080a3005b63ea8e4eb560e01b5f5260045ffd5b505f828152602081905260409020546001600160a01b031615156101b1565b346100c65760403660031901126100c657600435610252610459565b5f828152602081905260409020546001600160a01b031633036102c2575f82815260016020526040812080546001600160a01b0319166001600160a01b039390931692831790559091907f335721b01866dc23fbee8b6b2c7b1e14d6f05c28cd35a2c934239f94095602a09080a3005b6330cd747160e01b5f5260045ffd5b346100c65760403660031901126100c6576004356024359067ffffffffffffffff82168092036100c6575f818152602081905260409020546001600160a01b031633036102c257805f52600260205260405f208267ffffffffffffffff198254161790557f1d4f9bbfc9cab89d66e1a1562f2233ccbf1308cb4f63de2ead5787adddb8fa685f80a3005b346100c65760603660031901126100c6576044356001600160a01b0381169060243590600435908390036100c6575f818152602081905260409020546001600160a01b031633036102c2576040516020810190828252836040820152604081526060810181811067ffffffffffffffff821117610417576040525190205f525f60205260405f208360018060a01b03198254161790557fce0457fe73731f824cc272376169235128c118b49d344817417c6d108d155e825f80a4005b634e487b7160e01b5f52604160045260245ffd5b346100c65760203660031901126100c6576020906004355f526001825260018060a01b0360405f2054168152f35b602435906001600160a01b03821682036100c65756fea164736f6c634300081b000a",
  "linkReferences": {},
  "deployedLinkReferences": {}
}