{
  "_format": "hh-sol-artifact-1",
  "contractName": "MockGovernanceToken",
  "sourceName": "contracts/MockGovernanceToken.sol",
  "abi": [
    {
      "inputs": [],
      "stateMutability": "nonpayable",
      "type": "constructor"
    },
    {
      "inputs": [],
      "name": "CheckpointUnorderedInsertion",
      "type": "error"
    },
    {
      "inputs": [],
      "name": "ECDSAInvalidSignature",
      "type": "error"
    },
    {
      "inputs": [
        {
          "internalType": "uint256",
          "name": "length",
          "type": "uint256"
        }
      ],
      "name": "ECDSAInvalidSignatureLength",
      "type": "error"
    },
    {
      "inputs": [
        {
          "internalType": "bytes32",
          "name": "s",
          "type": "bytes32"
        }
      ],
      "name": "ECDSAInvalidSignatureS",
      "type": "error"
    },
    {
      "inputs": [
        {
          "internalType": "uint256",
          "name": "increasedSupply",
          "type": "uint256"
        },
        {
          "internalType": "uint256",
          "name": "cap",
          "type": "uint256"
        }
      ],
      "name": "ERC20ExceededSafeSupply",
      "type": "error"
    },
    {
      "inputs": [
        {
          "internalType": "address",
          "name": "spender",
          "type": "address"
        },
        {
          "internalType": "uint256",
          "name": "allowance",
          "type": "uint256"
        },
        {
          "internalType": "uint256",
          "name": "needed",
          "type": "uint256"
        }
      ],
      "name": "ERC20InsufficientAllowance",
      "type": "error"
    },
    {
      "inputs": [
        {
          "internalType": "address",
          "name": "sender",
          "type": "address"
        },
        {
          "internalType": "uint256",
          "name": "balance",
          "type": "uint256"
        },
        {
          "internalType": "uint256",
          "name": "needed",
          "type": "uint256"
        }
      ],
      "name": "ERC20InsufficientBalance",
      "type": "error"
    },
    {
      "inputs": [
        {
          "internalType": "address",
          "name": "approver",
          "type": "address"
        }
      ],
      "name": "ERC20InvalidApprover",
      "type": "error"
    },
    {
      "inputs": [
        {
          "internalType": "address",
          "name": "receiver",
          "type": "address"
        }
      ],
      "name": "ERC20InvalidReceiver",
      "type": "error"
    },
    {
      "inputs": [
        {
          "internalType": "address",
          "name": "sender",
          "type": "address"
        }
      ],
      "name": "ERC20InvalidSender",
      "type": "error"
    },
    {
      "inputs": [
        {
          "internalType": "address",
          "name": "spender",
          "type": "address"
        }
      ],
      "name": "ERC20InvalidSpender",
      "type": "error"
    },
    {
      "inputs": [
        {
          "internalType": "uint256",
          "name": "deadline",
          "type": "uint256"
        }
      ],
      "name": "ERC2612ExpiredSignature",
      "type": "error"
    },
    {
      "inputs": [
        {
          "internalType": "address",
          "name": "signer",
          "type": "address"
        },
        {
          "internalType": "address",
          "name": "owner",
          "type": "address"
        }
      ],
      "name": "ERC2612InvalidSigner",
      "type": "error"
    },
    {
      "inputs": [
        {
          "internalType": "uint256",
          "name": "timepoint",
          "type": "uint256"
        },
        {
          "internalType": "uint48",
          "name": "clock",
          "type": "uint48"
        }
      ],
      "name": "ERC5805FutureLookup",
      "type": "error"
    },
    {
      "inputs": [],
      "name": "ERC6372InconsistentClock",
      "type": "error"
    },
    {
      "inputs": [
        {
          "internalType": "address",
          "name": "account",
          "type": "address"
        },
        {
          "internalType": "uint256",
          "name": "currentNonce",
          "type": "uint256"
        }
      ],
      "name": "InvalidAccountNonce",
      "type": "error"
    },
    {
      "inputs": [],
      "name": "InvalidShortString",
      "type": "error"
    },
    {
      "inputs": [
        {
          "internalType": "uint8",
          "name": "bits",
          "type": "uint8"
        },
        {
          "internalType": "uint256",
          "name": "value",
          "type": "uint256"
        }
      ],
      "name": "SafeCastOverflowedUintDowncast",
      "type": "error"
    },
    {
      "inputs": [
        {
          "internalType": "string",
          "name": "str",
          "type": "string"
        }
      ],
      "name": "StringTooLong",
      "type": "error"
    },
    {
      "inputs": [
        {
          "internalType": "uint256",
          "name": "expiry",
          "type": "uint256"
        }
      ],
      "name": "VotesExpiredSignature",
      "type": "error"
    },
    {
      "anonymous": false,
      "inputs": [
        {
          "indexed": true,
          "internalType": "address",
          "name": "owner",
          "type": "address"
        },
        {
          "indexed": true,
          "internalType": "address",
          "name": "spender",
          "type": "address"
        },
        {
          "indexed": false,
          "internalType": "uint256",
          "name": "value",
          "type": "uint256"
        }
      ],
      "name": "Approval",
      "type": "event"
    },
    {
      "anonymous": false,
      "inputs": [
        {
          "indexed": true,
          "internalType": "address",
          "name": "delegator",
          "type": "address"
        },
        {
          "indexed": true,
          "internalType": "address",
          "name": "fromDelegate",
          "type": "address"
        },
        {
          "indexed": true,
          "internalType": "address",
          "name": "toDelegate",
          "type": "address"
        }
      ],
      "name": "DelegateChanged",
      "type": "event"
    },
    {
      "anonymous": false,
      "inputs": [
        {
          "indexed": true,
          "internalType": "address",
          "name": "delegate",
          "type": "address"
        },
        {
          "indexed": false,
          "internalType": "uint256",
          "name": "previousVotes",
          "type": "uint256"
        },
        {
          "indexed": false,
          "internalType": "uint256",
          "name": "newVotes",
          "type": "uint256"
        }
      ],
      "name": "DelegateVotesChanged",
      "type": "event"
    },
    {
      "anonymous": false,
      "inputs": [],
      "name": "EIP712DomainChanged",
      "type": "event"
    },
    {
      "anonymous": false,
      "inputs": [
        {
          "indexed": true,
          "internalType": "address",
          "name": "from",
          "type": "address"
        },
        {
          "indexed": true,
          "internalType": "address",
          "name": "to",
          "type": "address"
        },
        {
          "indexed": false,
          "internalType": "uint256",
          "name": "value",
          "type": "uint256"
        }
      ],
      "name": "Transfer",
      "type": "event"
    },
    {
      "inputs": [],
      "name": "CLOCK_MODE",
      "outputs": [
        {
          "internalType": "string",
          "name": "",
          "type": "string"
        }
      ],
      "stateMutability": "view",
      "type": "function"
    },
    {
      "inputs": [],
      "name": "DOMAIN_SEPARATOR",
      "outputs": [
        {
          "internalType": "bytes32",
          "name": "",
          "type": "bytes32"
        }
      ],
      "stateMutability": "view",
      "type": "function"
    },
    {
      "inputs": [
        {
          "internalType": "address",
          "name": "owner",
          "type": "address"
        },
        {
          "internalType": "address",
          "name": "spender",
          "type": "address"
        }
      ],
      "name": "allowance",
      "outputs": [
        {
          "internalType": "uint256",
          "name": "",
          "type": "uint256"
        }
      ],
      "stateMutability": "view",
      "type": "function"
    },
    {
      "inputs": [
        {
          "internalType": "address",
          "name": "spender",
          "type": "address"
        },
        {
          "internalType": "uint256",
          "name": "value",
          "type": "uint256"
        }
      ],
      "name": "approve",
      "outputs": [
        {
          "internalType": "bool",
          "name": "",
          "type": "bool"
        }
      ],
      "stateMutability": "nonpayable",
      "type": "function"
    },
    {
      "inputs": [
        {
          "internalType": "address",
          "name": "account",
          "type": "address"
        }
      ],
      "name": "balanceOf",
      "outputs": [
        {
          "internalType": "uint256",
          "name": "",
          "type": "uint256"
        }
      ],
      "stateMutability": "view",
      "type": "function"
    },
    {
      "inputs": [
        {
          "internalType": "address",
          "name": "from",
          "type": "address"
        },
        {
          "internalType": "uint256",
          "name": "amount",
          "type": "uint256"
        }
      ],
      "name": "burn",
      "outputs": [],
      "stateMutability": "nonpayable",
      "type": "function"
    },
    {
      "inputs": [
        {
          "internalType": "address",
          "name": "account",
          "type": "address"
        },
        {
          "internalType": "uint32",
          "name": "pos",
          "type": "uint32"
        }
      ],
      "name": "checkpoints",
      "outputs": [
        {
          "components": [
            {
              "internalType": "uint48",
              "name": "_key",
              "type": "uint48"
            },
            {
              "internalType": "uint208",
              "name": "_value",
              "type": "uint208"
            }
          ],
          "internalType": "struct Checkpoints.Checkpoint208",
          "name": "",
          "type": "tuple"
        }
      ],
      "stateMutability": "view",
      "type": "function"
    },
    {
      "inputs": [],
      "name": "clock",
      "outputs": [
        {
          "internalType": "uint48",
          "name": "",
          "type": "uint48"
        }
      ],
      "stateMutability": "view",
      "type": "function"
    },
    {
      "inputs": [],
      "name": "decimals",
      "outputs": [
        {
          "internalType": "uint8",
          "name": "",
          "type": "uint8"
        }
      ],
      "stateMutability": "view",
      "type": "function"
    },
    {
      "inputs": [
        {
          "internalType": "address",
          "name": "delegatee",
          "type": "address"
        }
      ],
      "name": "delegate",
      "outputs": [],
      "stateMutability": "nonpayable",
      "type": "function"
    },
    {
      "inputs": [
        {
          "internalType": "address",
          "name": "delegatee",
          "type": "address"
        },
        {
          "internalType": "uint256",
          "name": "nonce",
          "type": "uint256"
        },
        {
          "internalType": "uint256",
          "name": "expiry",
          "type": "uint256"
        },
        {
          "internalType": "uint8",
          "name": "v",
          "type": "uint8"
        },
        {
          "internalType": "bytes32",
          "name": "r",
          "type": "bytes32"
        },
        {
          "internalType": "bytes32",
          "name": "s",
          "type": "bytes32"
        }
      ],
      "name": "delegateBySig",
      "outputs": [],
      "stateMutability": "nonpayable",
      "type": "function"
    },
    {
      "inputs": [
        {
          "internalType": "address",
          "name": "account",
          "type": "address"
        }
      ],
      "name": "delegates",
      "outputs": [
        {
          "internalType": "address",
          "name": "",
          "type": "address"
        }
      ],
      "stateMutability": "view",
      "type": "function"
    },
    {
      "inputs": [],
      "name": "eip712Domain",
      "outputs": [
        {
          "internalType": "bytes1",
          "name": "fields",
          "type": "bytes1"
        },
        {
          "internalType": "string",
          "name": "name",
          "type": "string"
        },
        {
          "internalType": "string",
          "name": "version",
          "type": "string"
        },
        {
          "internalType": "uint256",
          "name": "chainId",
          "type": "uint256"
        },
        {
          "internalType": "address",
          "name": "verifyingContract",
          "type": "address"
        },
        {
          "internalType": "bytes32",
          "name": "salt",
          "type": "bytes32"
        },
        {
          "internalType": "uint256[]",
          "name": "extensions",
          "type": "uint256[]"
        }
      ],
      "stateMutability": "view",
      "type": "function"
    },
    {
      "inputs": [
        {
          "internalType": "uint256",
          "name": "timepoint",
          "type": "uint256"
        }
      ],
      "name": "getPastTotalSupply",
      "outputs": [
        {
          "internalType": "uint256",
          "name": "",
          "type": "uint256"
        }
      ],
      "stateMutability": "view",
      "type": "function"
    },
    {
      "inputs": [
        {
          "internalType": "address",
          "name": "account",
          "type": "address"
        },
        {
          "internalType": "uint256",
          "name": "timepoint",
          "type": "uint256"
        }
      ],
      "name": "getPastVotes",
      "outputs": [
        {
          "internalType": "uint256",
          "name": "",
          "type": "uint256"
        }
      ],
      "stateMutability": "view",
      "type": "function"
    },
    {
      "inputs": [
        {
          "internalType": "address",
          "name": "account",
          "type": "address"
        }
      ],
      "name": "getVotes",
      "outputs": [
        {
          "internalType": "uint256",
          "name": "",
          "type": "uint256"
        }
      ],
      "stateMutability": "view",
      "type": "function"
    },
    {
      "inputs": [
        {
          "internalType": "address",
          "name": "to",
          "type": "address"
        },
        {
          "internalType": "uint256",
          "name": "amount",
          "type": "uint256"
        }
      ],
      "name": "mint",
      "outputs": [],
      "stateMutability": "nonpayable",
      "type": "function"
    },
    {
      "inputs": [],
      "name": "name",
      "outputs": [
        {
          "internalType": "string",
          "name": "",
          "type": "string"
        }
      ],
      "stateMutability": "view",
      "type": "function"
    },
    {
      "inputs": [
        {
          "internalType": "address",
          "name": "owner",
          "type": "address"
        }
      ],
      "name": "nonces",
      "outputs": [
        {
          "internalType": "uint256",
          "name": "",
          "type": "uint256"
        }
      ],
      "stateMutability": "view",
      "type": "function"
    },
    {
      "inputs": [
        {
          "internalType": "address",
          "name": "account",
          "type": "address"
        }
      ],
      "name": "numCheckpoints",
      "outputs": [
        {
          "internalType": "uint32",
          "name": "",
          "type": "uint32"
        }
      ],
      "stateMutability": "view",
      "type": "function"
    },
    {
      "inputs": [
        {
          "internalType": "address",
          "name": "owner",
          "type": "address"
        },
        {
          "internalType": "address",
          "name": "spender",
          "type": "address"
        },
        {
          "internalType": "uint256",
          "name": "value",
          "type": "uint256"
        },
        {
          "internalType": "uint256",
          "name": "deadline",
          "type": "uint256"
        },
        {
          "internalType": "uint8",
          "name": "v",
          "type": "uint8"
        },
        {
          "internalType": "bytes32",
          "name": "r",
          "type": "bytes32"
        },
        {
          "internalType": "bytes32",
          "name": "s",
          "type": "bytes32"
        }
      ],
      "name": "permit",
      "outputs": [],
      "stateMutability": "nonpayable",
      "type": "function"
    },
    {
      "inputs": [],
      "name": "symbol",
      "outputs": [
        {
          "internalType": "string",
          "name": "",
          "type": "string"
        }
      ],
      "stateMutability": "view",
      "type": "function"
    },
    {
      "inputs": [],
      "name": "totalSupply",
      "outputs": [
        {
          "internalType": "uint256",
          "name": "",
          "type": "uint256"
        }
      ],
      "stateMutability": "view",
      "type": "function"
    },
    {
      "inputs": [
        {
          "internalType": "address",
          "name": "to",
          "type": "address"
        },
        {
          "internalType": "uint256",
          "name": "value",
          "type": "uint256"
        }
      ],
      "name": "transfer",
      "outputs": [
        {
          "internalType": "bool",
          "name": "",
          "type": "bool"
        }
      ],
      "stateMutability": "nonpayable",
      "type": "function"
    },
    {
      "inputs": [
        {
          "internalType": "address",
          "name": "from",
          "type": "address"
        },
        {
          "internalType": "address",
          "name": "to",
          "type": "address"
        },
        {
          "internalType": "uint256",
          "name": "value",
          "type": "uint256"
        }
      ],
      "name": "transferFrom",
      "outputs": [
        {
          "internalType": "bool",
          "name": "",
          "type": "bool"
        }
      ],
      "stateMutability": "nonpayable",
      "type": "function"
    }
  ],
  "bytecode": "0x6101606040523461045357604051610018604082610457565b60158152602081017f4d6f636b20476f7665726e616e636520546f6b656e0000000000000000000000815260405190610052604083610457565b601582527f4d6f636b20476f7665726e616e636520546f6b656e000000000000000000000060208301526040519261008b604085610457565b60038452621351d560ea1b6020850152604051936100aa604086610457565b60018552603160f81b60208601908152845190946001600160401b0382116103565760035490600182811c92168015610449575b60208310146103385781601f8493116103db575b50602090601f8311600114610375575f9261036a575b50508160011b915f199060031b1c1916176003555b8051906001600160401b0382116103565760045490600182811c9216801561034c575b60208310146103385781601f8493116102ca575b50602090601f8311600114610264575f92610259575b50508160011b915f199060031b1c1916176004555b6101888161047a565b6101205261019584610601565b61014052519020918260e05251902080610100524660a0526040519060208201927f8b73c3c69bb8fe3d512ecc4cf759cc79239f7b179b0ffacaa9a75d522b39400f8452604083015260608201524660808201523060a082015260a081526101fe60c082610457565b5190206080523060c052604051611cd8908161073a8239608051816110d7015260a05181611194015260c051816110a1015260e051816111260152610100518161114c01526101205181610793015261014051816107bc0152f35b015190505f8061016a565b60045f9081528281209350601f198516905b8181106102b2575090846001959493921061029a575b505050811b0160045561017f565b01515f1960f88460031b161c191690555f808061028c565b92936020600181928786015181550195019301610276565b60045f529091507f8a35acfbc15ff81a39ae7d344fd709f28e8600b4aa8c65c6b64bfe7fe36bd19b601f840160051c8101916020851061032e575b90601f859493920160051c01905b8181106103205750610154565b5f8155849350600101610313565b9091508190610305565b634e487b7160e01b5f52602260045260245ffd5b91607f1691610140565b634e487b7160e01b5f52604160045260245ffd5b015190505f80610108565b60035f9081528281209350601f198516905b8181106103c357509084600195949392106103ab575b505050811b0160035561011d565b01515f1960f88460031b161c191690555f808061039d565b92936020600181928786015181550195019301610387565b60035f529091507fc2575a0e9e593c00f959f8c92f12db2869c3395a3b0502d05e2516446f71f85b601f840160051c8101916020851061043f575b90601f859493920160051c01905b81811061043157506100f2565b5f8155849350600101610424565b9091508190610416565b91607f16916100de565b5f80fd5b601f909101601f19168101906001600160401b0382119082101761035657604052565b908151602081105f146104f4575090601f8151116104b45760208151910151602082106104a5571790565b5f198260200360031b1b161790565b604460209160405192839163305a27a960e01b83528160048401528051918291826024860152018484015e5f828201840152601f01601f19168101030190fd5b6001600160401b03811161035657600554600181811c911680156105f7575b602082101461033857601f81116105c4575b50602092601f821160011461056357928192935f92610558575b50508160011b915f199060031b1c19161760055560ff90565b015190505f8061053f565b601f1982169360055f52805f20915f5b8681106105ac5750836001959610610594575b505050811b0160055560ff90565b01515f1960f88460031b161c191690555f8080610586565b91926020600181928685015181550194019201610573565b60055f52601f60205f20910160051c810190601f830160051c015b8181106105ec5750610525565b5f81556001016105df565b90607f1690610513565b908151602081105f1461062c575090601f8151116104b45760208151910151602082106104a5571790565b6001600160401b03811161035657600654600181811c9116801561072f575b602082101461033857601f81116106fc575b50602092601f821160011461069b57928192935f92610690575b50508160011b915f199060031b1c19161760065560ff90565b015190505f80610677565b601f1982169360065f52805f20915f5b8681106106e457508360019596106106cc575b505050811b0160065560ff90565b01515f1960f88460031b161c191690555f80806106be565b919260206001819286850151815501940192016106ab565b60065f52601f60205f20910160051c810190601f830160051c015b818110610724575061065d565b5f8155600101610717565b90607f169061064b56fe60806040526004361015610011575f80fd5b5f3560e01c806306fdde03146101a4578063095ea7b31461019f57806318160ddd1461019a57806323b872dd14610195578063313ce567146101905780633644e5151461018b5780633a46b1a81461018657806340c10f19146101815780634bf5d7e91461017c578063587cde1e146101775780635c19a95c146101725780636fcfff451461016d57806370a08231146101685780637ecebe001461016357806384b0196e1461015e5780638e539e8c1461015957806391ddadf41461015457806395d89b411461014f5780639ab24eb01461014a5780639dc29fac14610145578063a9059cbb14610140578063c3cda5201461013b578063d505accf14610136578063dd62ed3e146101315763f1127ed81461012c575f80fd5b610ded565b610d96565b610c72565b610b63565b610b1d565b610a4e565b610a07565b610962565b610937565b610878565b61077b565b610743565b61070b565b6106a9565b610687565b610647565b6105b7565b6104fb565b610416565b6103f4565b6103d9565b610339565b61031c565b6102eb565b6101e1565b805180835260209291819084018484015e5f828201840152601f01601f1916010190565b9060206101de9281815201906101a9565b90565b346102bb575f3660031901126102bb576040515f60035461020181610e9f565b80845290600181169081156102975750600114610239575b6102358361022981850382610f8d565b604051918291826101cd565b0390f35b60035f9081527fc2575a0e9e593c00f959f8c92f12db2869c3395a3b0502d05e2516446f71f85b939250905b80821061027d57509091508101602001610229610219565b919260018160209254838588010152019101909291610265565b60ff191660208086019190915291151560051b840190910191506102299050610219565b5f80fd5b600435906001600160a01b03821682036102bb57565b602435906001600160a01b03821682036102bb57565b346102bb5760403660031901126102bb576103116103076102bf565b6024359033611310565b602060405160018152f35b346102bb575f3660031901126102bb576020600254604051908152f35b346102bb5760603660031901126102bb576103526102bf565b61035a6102d5565b6001600160a01b0382165f9081526001602090815260408083203384529091529020549160443591905f1984106103a2575b6103969350610fd8565b60405160018152602090f35b8284106103be576103b983610396950333836113ab565b61038c565b8284637dc7a0d960e11b5f523360045260245260445260645ffd5b346102bb575f3660031901126102bb57602060405160128152f35b346102bb575f3660031901126102bb57602061040e61109e565b604051908152f35b346102bb5760403660031901126102bb5761042f6102bf565b6001600160a01b03165f9081526009602052604090206104506024356111ba565b8154905f8291600584116104a3575b61046a93508461159c565b908161048857505060205f5b6040516001600160d01b039091168152f35b610493602092611207565b905f52815f20015460301c610476565b91926104ae8161143e565b81039081116104f65761046a93855f5265ffffffffffff8260205f2001541665ffffffffffff8516105f146104e457509161045f565b9291506104f090611215565b9061045f565b6111f3565b346102bb5760403660031901126102bb576105146102bf565b6024356001600160a01b03821680156105a45761053b61053683600254611223565b600255565b6001600160a01b0383165f90815260208181526040808320805486019055518481525f516020611cac5f395f51905f529190a3600254916001600160d01b0380841161058d5761058b8383611a06565b005b630e58ae9360e11b5f52600484905260245260445ffd5b63ec442f0560e01b5f525f60045260245ffd5b346102bb575f3660031901126102bb576105d0436113f1565b65ffffffffffff806105e1436113f1565b16911603610638576102356040516105fa604082610f8d565b601d81527f6d6f64653d626c6f636b6e756d6265722666726f6d3d64656661756c7400000060208201526040519182916020835260208301906101a9565b6301bfc1c560e61b5f5260045ffd5b346102bb5760203660031901126102bb576001600160a01b036106686102bf565b165f526008602052602060018060a01b0360405f205416604051908152f35b346102bb5760203660031901126102bb5761058b6106a36102bf565b33611230565b346102bb5760203660031901126102bb576001600160a01b036106ca6102bf565b165f52600960205260405f205463ffffffff81116106f45760405163ffffffff9091168152602090f35b6306dfcc6560e41b5f52602060045260245260445ffd5b346102bb5760203660031901126102bb57602061040e6107296102bf565b6001600160a01b03165f9081526020819052604090205490565b346102bb5760203660031901126102bb576001600160a01b036107646102bf565b165f526007602052602060405f2054604051908152f35b346102bb575f3660031901126102bb5761081f6107b77f0000000000000000000000000000000000000000000000000000000000000000611722565b6107e07f0000000000000000000000000000000000000000000000000000000000000000611782565b60206040516107ef8282610f8d565b5f81528161082d81830194601f198301368737604051978897600f60f81b895260e0858a015260e08901906101a9565b9087820360408901526101a9565b914660608701523060808701525f60a087015285830360c087015251918281520192915f5b82811061086157505050500390f35b835185528695509381019392810192600101610852565b346102bb5760203660031901126102bb576108946004356111ba565b600a54905f8291600584116108e3575b6108b09350600a61159c565b806108c157506040515f8152602090f35b6108de6108cf602092611207565b600a5f52825f20015460301c90565b610476565b91926108ee8161143e565b81039081116104f6576108b093600a5f5265ffffffffffff8260205f2001541665ffffffffffff8516105f146109255750916108a4565b92915061093190611215565b906108a4565b346102bb575f3660031901126102bb576020610952436113f1565b65ffffffffffff60405191168152f35b346102bb575f3660031901126102bb576040515f60045461098281610e9f565b808452906001811690811561029757506001146109a9576102358361022981850382610f8d565b60045f9081527f8a35acfbc15ff81a39ae7d344fd709f28e8600b4aa8c65c6b64bfe7fe36bd19b939250905b8082106109ed57509091508101602001610229610219565b9192600181602092548385880101520191019092916109d5565b346102bb5760203660031901126102bb576001600160a01b03610a286102bf565b165f526009602052602060018060d01b03610a4560405f206112b1565b16604051908152f35b346102bb5760403660031901126102bb57610a676102bf565b6024356001600160a01b038216918215610b0a576001600160a01b0381165f90815260208190526040902054828110610ae75761058b93835f9203610abb8460018060a01b03165f525f60205260405f2090565b55610ac98460025403600255565b6040518481525f516020611cac5f395f51905f5290602090a3611a89565b63391434e360e21b5f526001600160a01b0390911660045260245260445260645ffd5b634b637e8f60e11b5f525f60045260245ffd5b346102bb5760403660031901126102bb57610311610b396102bf565b6024359033610fd8565b6064359060ff821682036102bb57565b6084359060ff821682036102bb57565b346102bb5760c03660031901126102bb57610b7c6102bf565b60243590604435610b8b610b43565b6084359060a43592804211610c605791610c109391610c02610c079460405160208101917fe48329057bfd03d55e49b547132e39cffd9c1820ad7b9d4c5307691425d15adf835260018060a01b038a1660408301528a6060830152608082015260808152610bfa60a082610f8d565b5190206112db565b6117b9565b9092919261185a565b6001600160a01b0381165f908152600760205260409020805460018101909155809303610c415761058b9250611230565b90506301d4b62360e61b5f5260018060a01b031660045260245260445ffd5b632341d78760e11b5f5260045260245ffd5b346102bb5760e03660031901126102bb57610c8b6102bf565b610c936102d5565b6044359060643592610ca3610b53565b60a43560c43590864211610d83576001600160a01b0384165f908152600760205260409020805460018101909155610d489390610d43909860405160208101917f6e71edae12b1b97f4d1f60370fef10105fa2faae0126114a169c64845d6126c9835260018060a01b0389169b8c604084015260018060a01b038b1660608401528b608084015260a083015260c082015260c08152610bfa60e082610f8d565b611301565b936001600160a01b03851603610d625761058b9350611310565b6325c0072360e11b5f526001600160a01b038085166004521660245260445ffd5b8663313c898160e11b5f5260045260245ffd5b346102bb5760403660031901126102bb576020610de4610db46102bf565b610dbc6102d5565b6001600160a01b039182165f9081526001855260408082209290931681526020919091522090565b54604051908152f35b346102bb5760403660031901126102bb57610e066102bf565b6024359063ffffffff821682036102bb5761023591610e5591610e27610fc0565b50610e30610fc0565b506001600160a01b03165f908152600960205260409020610e4f610fc0565b506118d6565b5060405190610e6382610f6c565b5465ffffffffffff811680835260309190911c60209283019081526040805192835290516001600160d01b031692820192909252918291820190565b90600182811c92168015610ecd575b6020831014610eb957565b634e487b7160e01b5f52602260045260245ffd5b91607f1691610eae565b5f9291815491610ee683610e9f565b8083529260018116908115610f3b5750600114610f0257505050565b5f9081526020812093945091925b838310610f21575060209250010190565b600181602092949394548385870101520191019190610f10565b915050602093945060ff929192191683830152151560051b010190565b634e487b7160e01b5f52604160045260245ffd5b6040810190811067ffffffffffffffff821117610f8857604052565b610f58565b90601f8019910116810190811067ffffffffffffffff821117610f8857604052565b60405190610fbe604083610f8d565b565b60405190610fcd82610f6c565b5f6020838281520152565b6001600160a01b038116939291908415610b0a576001600160a01b03821680156105a4576001600160a01b0382165f90815260208190526040902054958487106110785784610fbe96970361103c8460018060a01b03165f525f60205260405f2090565b556001600160a01b0384165f9081526020819052604090208054860190556040518581525f516020611cac5f395f51905f5290602090a3611b04565b63391434e360e21b5f526001600160a01b0383166004526024879052604485905260645ffd5b307f00000000000000000000000000000000000000000000000000000000000000006001600160a01b03161480611191575b156110f9577f000000000000000000000000000000000000000000000000000000000000000090565b60405160208101907f8b73c3c69bb8fe3d512ecc4cf759cc79239f7b179b0ffacaa9a75d522b39400f82527f000000000000000000000000000000000000000000000000000000000000000060408201527f000000000000000000000000000000000000000000000000000000000000000060608201524660808201523060a082015260a0815261118b60c082610f8d565b51902090565b507f000000000000000000000000000000000000000000000000000000000000000046146110d0565b65ffffffffffff6111ca436113f1565b16808210156111dd57506101de906113f1565b90637669fc0f60e11b5f5260045260245260445ffd5b634e487b7160e01b5f52601160045260245ffd5b5f198101919082116104f657565b90600182018092116104f657565b919082018092116104f657565b6001600160a01b038181165f81815260086020526040812080548685166001600160a01b031982168117909255610fbe969416946112ab9390928691907f3134e8a2e6d97e929a7e54011ea5485d7d196dd5f0ba4d4ef95803e8e3fc257f9080a46001600160a01b03165f9081526020819052604090205490565b91611600565b805490816112bf5750505f90565b815f198101116104f6575f525f199060205f2001015460301c90565b6042906112e661109e565b906040519161190160f01b8352600283015260228201522090565b916101de9391610c07936117b9565b6001600160a01b0316908115611398576001600160a01b03811692831561138557806113787f8c5be1e5ebec7d5bd14f71427d1e84f3dd0314c0f7b2291e5b200ac8c7c3b92593855f52600160205260405f209060018060a01b03165f5260205260405f2090565b55604051908152602090a3565b634a1406b160e11b5f525f60045260245ffd5b63e602df0560e01b5f525f60045260245ffd5b6001600160a01b0316908115611398576001600160a01b03811615611385576113ee915f52600160205260405f209060018060a01b03165f5260205260405f2090565b55565b65ffffffffffff81116114095765ffffffffffff1690565b6306dfcc6560e41b5f52603060045260245260445ffd5b811561142a570490565b634e487b7160e01b5f52601260045260245ffd5b60018111156101de57806001600160801b82101561155f575b6115056114fb6114f16114e76114dd6114d36114c261150c9760046115119a600160401b811015611552575b640100000000811015611545575b62010000811015611538575b61010081101561152b575b601081101561151e575b1015611516575b60030260011c90565b6114cc818b611420565b0160011c90565b6114cc818a611420565b6114cc8189611420565b6114cc8188611420565b6114cc8187611420565b6114cc8186611420565b8093611420565b821190565b900390565b60011b6114b9565b60041c9160021b916114b2565b60081c9160041b916114a8565b60101c9160081b9161149d565b60201c9160101b91611491565b60401c9160201b91611483565b505061151161150c6115056114fb6114f16114e76114dd6114d36114c26115868a60801c90565b9850600160401b97506114579650505050505050565b91905b8382106115ac5750505090565b9091928083169080841860011c82018092116104f657845f5265ffffffffffff8260205f2001541665ffffffffffff8416105f146115ee5750925b919061159f565b9392506115fa90611215565b916115e7565b6001600160a01b03808316939291908116908185141580611719575b611628575b5050505050565b816116ac575b50508261163d575b8080611621565b6001600160a01b03165f9081526009602052604090207fdec2bacdd2f05b59de34da9b523dff8be42e5e38e818c82fdb0bae774387a724916116899161168390916118ff565b90611968565b604080516001600160d01b039384168152919092166020820152a25f8080611636565b6001600160a01b03165f9081526009602052604090207fdec2bacdd2f05b59de34da9b523dff8be42e5e38e818c82fdb0bae774387a724906116f7906116f1866118ff565b90611930565b604080516001600160d01b039384168152919092166020820152a25f8061162e565b5083151561161c565b60ff81146117685760ff811690601f82116117595760405191611746604084610f8d565b6020808452838101919036833783525290565b632cd44ac360e21b5f5260045ffd5b506040516101de8161177b816005610ed7565b0382610f8d565b60ff81146117a65760ff811690601f82116117595760405191611746604084610f8d565b506040516101de8161177b816006610ed7565b91906fa2a8918ca85bafe22016d0b997e4df60600160ff1b038411611831579160209360809260ff5f9560405194855216868401526040830152606082015282805260015afa15611826575f516001600160a01b0381161561181c57905f905f90565b505f906001905f90565b6040513d5f823e3d90fd5b5050505f9160039190565b6004111561184657565b634e487b7160e01b5f52602160045260245ffd5b6118638161183c565b8061186c575050565b6118758161183c565b6001810361188c5763f645eedf60e01b5f5260045ffd5b6118958161183c565b600281036118b0575063fce698f760e01b5f5260045260245ffd5b806118bc60039261183c565b146118c45750565b6335e2f38360e21b5f5260045260245ffd5b80548210156118eb575f5260205f2001905f90565b634e487b7160e01b5f52603260045260245ffd5b6001600160d01b038111611919576001600160d01b031690565b6306dfcc6560e41b5f5260d060045260245260445ffd5b9061193a436113f1565b90611944836112b1565b6001600160d01b0391821690821603919082116104f65761196492611bd5565b9091565b90611972436113f1565b9061197c836112b1565b6001600160d01b0391821690821601919082116104f65761196492611bd5565b6119a5436113f1565b906119b0600a6112b1565b6001600160d01b03918216908216019081116104f65761196491600a611bd5565b6119da436113f1565b906119e5600a6112b1565b6001600160d01b03918216908216039081116104f65761196491600a611bd5565b90610fbe91611a1c611a17836118ff565b61199c565b50506001600160a01b03168015611a71575b60086020527f5eff886ea0ce6ca488a3d6e336d6c0f75f46d19b42c06ce5ee98e42c96d256c7545f9182526040909120546001600160a01b039081169116611600565b611a82611a7d836118ff565b6119d1565b5050611a2e565b610fbe91906001600160a01b03168015611af1575b611aaa611a7d836118ff565b50505f908152600860205260408120549080527f5eff886ea0ce6ca488a3d6e336d6c0f75f46d19b42c06ce5ee98e42c96d256c7546001600160a01b039081169116611600565b611afd611a17836118ff565b5050611a9e565b610fbe92916001600160a01b03909116908115611b67575b6001600160a01b0316908115611b54575b5f90815260086020526040808220549282529020546001600160a01b039081169116611600565b611b60611a7d846118ff565b5050611b2d565b611b73611a17846118ff565b5050611b1c565b8054600160401b811015610f8857611b97916001820181556118d6565b611bc257815160209092015160301b65ffffffffffff191665ffffffffffff92909216919091179055565b634e487b7160e01b5f525f60045260245ffd5b80549293928015611c8157611bec611bf791611207565b825f5260205f200190565b8054603081901c9365ffffffffffff91821692918116808411611c7257879303611c3e5750611c3a92509065ffffffffffff82549181199060301b169116179055565b9190565b915050611c3a91611c5e611c50610faf565b65ffffffffffff9093168352565b6001600160d01b0386166020830152611b7a565b632520601d60e01b5f5260045ffd5b5090611ca691611c92611c50610faf565b6001600160d01b0385166020830152611b7a565b5f919056feddf252ad1be2c89b69c2b068fc378daa952ba7f163c4a11628f55a4df523b3efa164736f6c634300081b000a",
  "linkReferences": {},
  "deployedLinkReferences": {}
}