{
  "_format": "hh-sol-artifact-1",
  "contractName": "PrivateProposal",
  "sourceName": "contracts/PrivateProposal.sol",
  "abi": [
    {
      "inputs": [
        {
          "components": [
            {
              "internalType": "bytes32",
              "name": "spaceId",
              "type": "bytes32"
            },
            {
              "internalType": "uint64",
              "name": "start",
              "type": "uint64"
            },
            {
              "internalType": "uint64",
              "name": "end",
              "type": "uint64"
            },
            {
              "internalType": "address",
              "name": "eligibilityToken",
              "type": "address"
            },
            {
              "internalType": "uint256",
              "name": "eligibilityThreshold",
              "type": "uint256"
            },
            {
              "internalType": "uint256",
              "name": "passingThreshold",
              "type": "uint256"
            },
            {
              "internalType": "enum ProposalType",
              "name": "pType",
              "type": "uint8"
            },
            {
              "internalType": "enum EligibilityType",
              "name": "eligibilityType",
              "type": "uint8"
            },
            {
              "internalType": "bool",
              "name": "includeAbstain",
              "type": "bool"
            },
            {
              "internalType": "string",
              "name": "title",
              "type": "string"
            },
            {
              "internalType": "string",
              "name": "bodyURI",
              "type": "string"
            },
            {
              "internalType": "string[]",
              "name": "choices",
              "type": "string[]"
            }
          ],
          "internalType": "struct CreateProposalParams",
          "name": "params",
          "type": "tuple"
        },
        {
          "internalType": "address",
          "name": "_spaceRegistry",
          "type": "address"
        }
      ],
      "stateMutability": "nonpayable",
      "type": "constructor"
    },
    {
      "inputs": [],
      "name": "AlreadyResolved",
      "type": "error"
    },
    {
      "inputs": [],
      "name": "AlreadyVoted",
      "type": "error"
    },
    {
      "inputs": [],
      "name": "AutoRevealTriggered",
      "type": "error"
    },
    {
      "inputs": [],
      "name": "InsufficientTokenBalance",
      "type": "error"
    },
    {
      "inputs": [],
      "name": "InvalidChoiceIndex",
      "type": "error"
    },
    {
      "inputs": [],
      "name": "InvalidKMSSignatures",
      "type": "error"
    },
    {
      "inputs": [],
      "name": "InvalidPercentageInputLength",
      "type": "error"
    },
    {
      "inputs": [],
      "name": "InvalidProposalAddress",
      "type": "error"
    },
    {
      "inputs": [],
      "name": "MissingPercentageProof",
      "type": "error"
    },
    {
      "inputs": [],
      "name": "NoVotingPower",
      "type": "error"
    },
    {
      "inputs": [],
      "name": "NotSpaceMember",
      "type": "error"
    },
    {
      "inputs": [],
      "name": "OnlyFactory",
      "type": "error"
    },
    {
      "inputs": [],
      "name": "ProposalEnded",
      "type": "error"
    },
    {
      "inputs": [],
      "name": "ProposalNotStarted",
      "type": "error"
    },
    {
      "inputs": [],
      "name": "ResultsAlreadyRevealed",
      "type": "error"
    },
    {
      "inputs": [],
      "name": "RevealAlreadyRequested",
      "type": "error"
    },
    {
      "inputs": [],
      "name": "RevealNotRequested",
      "type": "error"
    },
    {
      "inputs": [],
      "name": "WrongProposalType",
      "type": "error"
    },
    {
      "inputs": [],
      "name": "ZamaProtocolUnsupported",
      "type": "error"
    },
    {
      "anonymous": false,
      "inputs": [
        {
          "indexed": true,
          "internalType": "uint8",
          "name": "winningChoice",
          "type": "uint8"
        },
        {
          "indexed": true,
          "internalType": "bool",
          "name": "passed",
          "type": "bool"
        }
      ],
      "name": "ProposalResolved",
      "type": "event"
    },
    {
      "anonymous": false,
      "inputs": [
        {
          "indexed": false,
          "internalType": "bytes32[]",
          "name": "handlesList",
          "type": "bytes32[]"
        },
        {
          "indexed": false,
          "internalType": "bytes",
          "name": "abiEncodedCleartexts",
          "type": "bytes"
        }
      ],
      "name": "PublicDecryptionVerified",
      "type": "event"
    },
    {
      "anonymous": false,
      "inputs": [
        {
          "indexed": true,
          "internalType": "uint256",
          "name": "timestamp",
          "type": "uint256"
        }
      ],
      "name": "ReadyToReveal",
      "type": "event"
    },
    {
      "anonymous": false,
      "inputs": [
        {
          "indexed": false,
          "internalType": "uint256[]",
          "name": "choiceVotes",
          "type": "uint256[]"
        }
      ],
      "name": "ResultsRevealed",
      "type": "event"
    },
    {
      "anonymous": false,
      "inputs": [
        {
          "indexed": false,
          "internalType": "bytes32[]",
          "name": "choiceVoteHandles",
          "type": "bytes32[]"
        }
      ],
      "name": "TallyRevealRequested",
      "type": "event"
    },
    {
      "anonymous": false,
      "inputs": [
        {
          "indexed": true,
          "internalType": "uint256",
          "name": "totalVoters",
          "type": "uint256"
        }
      ],
      "name": "TotalVotersUpdated",
      "type": "event"
    },
    {
      "anonymous": false,
      "inputs": [
        {
          "indexed": false,
          "internalType": "uint256[]",
          "name": "percentages",
          "type": "uint256[]"
        }
      ],
      "name": "VotePercentagesRevealed",
      "type": "event"
    },
    {
      "anonymous": false,
      "inputs": [
        {
          "indexed": true,
          "internalType": "address",
          "name": "user",
          "type": "address"
        },
        {
          "indexed": true,
          "internalType": "uint256",
          "name": "timestamp",
          "type": "uint256"
        }
      ],
      "name": "Voted",
      "type": "event"
    },
    {
      "inputs": [],
      "name": "autoRevealTriggered",
      "outputs": [
        {
          "internalType": "bool",
          "name": "",
          "type": "bool"
        }
      ],
      "stateMutability": "view",
      "type": "function"
    },
    {
      "inputs": [],
      "name": "bodyURI",
      "outputs": [
        {
          "internalType": "string",
          "name": "",
          "type": "string"
        }
      ],
      "stateMutability": "view",
      "type": "function"
    },
    {
      "inputs": [
        {
          "internalType": "uint256",
          "name": "",
          "type": "uint256"
        }
      ],
      "name": "choiceVotes",
      "outputs": [
        {
          "internalType": "uint256",
          "name": "",
          "type": "uint256"
        }
      ],
      "stateMutability": "view",
      "type": "function"
    },
    {
      "inputs": [
        {
          "internalType": "uint256",
          "name": "index",
          "type": "uint256"
        }
      ],
      "name": "choices",
      "outputs": [
        {
          "internalType": "string",
          "name": "",
          "type": "string"
        }
      ],
      "stateMutability": "view",
      "type": "function"
    },
    {
      "inputs": [],
      "name": "choicesLength",
      "outputs": [
        {
          "internalType": "uint256",
          "name": "",
          "type": "uint256"
        }
      ],
      "stateMutability": "view",
      "type": "function"
    },
    {
      "inputs": [],
      "name": "confidentialProtocolId",
      "outputs": [
        {
          "internalType": "uint256",
          "name": "",
          "type": "uint256"
        }
      ],
      "stateMutability": "view",
      "type": "function"
    },
    {
      "inputs": [],
      "name": "config",
      "outputs": [
        {
          "internalType": "bytes32",
          "name": "spaceId",
          "type": "bytes32"
        },
        {
          "internalType": "string",
          "name": "title",
          "type": "string"
        },
        {
          "internalType": "string",
          "name": "bodyURI",
          "type": "string"
        },
        {
          "internalType": "enum ProposalType",
          "name": "pType",
          "type": "uint8"
        },
        {
          "internalType": "uint64",
          "name": "start",
          "type": "uint64"
        },
        {
          "internalType": "uint64",
          "name": "end",
          "type": "uint64"
        },
        {
          "internalType": "enum EligibilityType",
          "name": "eligibilityType",
          "type": "uint8"
        },
        {
          "internalType": "address",
          "name": "eligibilityToken",
          "type": "address"
        },
        {
          "internalType": "uint256",
          "name": "eligibilityThreshold",
          "type": "uint256"
        },
        {
          "internalType": "address",
          "name": "creator",
          "type": "address"
        },
        {
          "internalType": "uint256",
          "name": "snapshotBlock",
          "type": "uint256"
        }
      ],
      "stateMutability": "view",
      "type": "function"
    },
    {
      "inputs": [],
      "name": "creator",
      "outputs": [
        {
          "internalType": "address",
          "name": "",
          "type": "address"
        }
      ],
      "stateMutability": "view",
      "type": "function"
    },
    {
      "inputs": [],
      "name": "eligibilityThreshold",
      "outputs": [
        {
          "internalType": "uint256",
          "name": "",
          "type": "uint256"
        }
      ],
      "stateMutability": "view",
      "type": "function"
    },
    {
      "inputs": [],
      "name": "eligibilityToken",
      "outputs": [
        {
          "internalType": "address",
          "name": "",
          "type": "address"
        }
      ],
      "stateMutability": "view",
      "type": "function"
    },
    {
      "inputs": [],
      "name": "eligibilityType",
      "outputs": [
        {
          "internalType": "enum EligibilityType",
          "name": "",
          "type": "uint8"
        }
      ],
      "stateMutability": "view",
      "type": "function"
    },
    {
      "inputs": [],
      "name": "end",
      "outputs": [
        {
          "internalType": "uint64",
          "name": "",
          "type": "uint64"
        }
      ],
      "stateMutability": "view",
      "type": "function"
    },
    {
      "inputs": [],
      "name": "factory",
      "outputs": [
        {
          "internalType": "address",
          "name": "",
          "type": "address"
        }
      ],
      "stateMutability": "view",
      "type": "function"
    },
    {
      "inputs": [
        {
          "internalType": "uint256",
          "name": "choiceIndex",
          "type": "uint256"
        }
      ],
      "name": "getEncryptedChoiceVotes",
      "outputs": [
        {
          "internalType": "euint32",
          "name": "",
          "type": "bytes32"
        }
      ],
      "stateMutability": "view",
      "type": "function"
    },
    {
      "inputs": [],
      "name": "getVotePercentages",
      "outputs": [
        {
          "internalType": "uint256[]",
          "name": "",
          "type": "uint256[]"
        }
      ],
      "stateMutability": "view",
      "type": "function"
    },
    {
      "inputs": [
        {
          "internalType": "address",
          "name": "user",
          "type": "address"
        }
      ],
      "name": "hasVoted",
      "outputs": [
        {
          "internalType": "bool",
          "name": "voted",
          "type": "bool"
        }
      ],
      "stateMutability": "view",
      "type": "function"
    },
    {
      "inputs": [],
      "name": "pType",
      "outputs": [
        {
          "internalType": "enum ProposalType",
          "name": "",
          "type": "uint8"
        }
      ],
      "stateMutability": "view",
      "type": "function"
    },
    {
      "inputs": [],
      "name": "passingThreshold",
      "outputs": [
        {
          "internalType": "uint256",
          "name": "",
          "type": "uint256"
        }
      ],
      "stateMutability": "view",
      "type": "function"
    },
    {
      "inputs": [
        {
          "internalType": "bytes",
          "name": "",
          "type": "bytes"
        }
      ],
      "name": "performUpkeep",
      "outputs": [],
      "stateMutability": "nonpayable",
      "type": "function"
    },
    {
      "inputs": [],
      "name": "proposalPassed",
      "outputs": [
        {
          "internalType": "bool",
          "name": "",
          "type": "bool"
        }
      ],
      "stateMutability": "view",
      "type": "function"
    },
    {
      "inputs": [],
      "name": "proposalResolved",
      "outputs": [
        {
          "internalType": "bool",
          "name": "",
          "type": "bool"
        }
      ],
      "stateMutability": "view",
      "type": "function"
    },
    {
      "inputs": [
        {
          "internalType": "address",
          "name": "proposalAddress",
          "type": "address"
        },
        {
          "internalType": "bytes",
          "name": "cleartexts",
          "type": "bytes"
        },
        {
          "internalType": "bytes",
          "name": "decryptionProof",
          "type": "bytes"
        }
      ],
      "name": "resolveProposalCallback",
      "outputs": [],
      "stateMutability": "nonpayable",
      "type": "function"
    },
    {
      "inputs": [],
      "name": "resultsRevealed",
      "outputs": [
        {
          "internalType": "bool",
          "name": "",
          "type": "bool"
        }
      ],
      "stateMutability": "view",
      "type": "function"
    },
    {
      "inputs": [],
      "name": "spaceId",
      "outputs": [
        {
          "internalType": "bytes32",
          "name": "",
          "type": "bytes32"
        }
      ],
      "stateMutability": "view",
      "type": "function"
    },
    {
      "inputs": [],
      "name": "spaceRegistry",
      "outputs": [
        {
          "internalType": "contract ISpaceRegistry",
          "name": "",
          "type": "address"
        }
      ],
      "stateMutability": "view",
      "type": "function"
    },
    {
      "inputs": [],
      "name": "start",
      "outputs": [
        {
          "internalType": "uint64",
          "name": "",
          "type": "uint64"
        }
      ],
      "stateMutability": "view",
      "type": "function"
    },
    {
      "inputs": [],
      "name": "statusFlags",
      "outputs": [
        {
          "internalType": "uint8",
          "name": "",
          "type": "uint8"
        }
      ],
      "stateMutability": "view",
      "type": "function"
    },
    {
      "inputs": [],
      "name": "timeUntilProposalEnds",
      "outputs": [
        {
          "internalType": "uint256",
          "name": "",
          "type": "uint256"
        }
      ],
      "stateMutability": "view",
      "type": "function"
    },
    {
      "inputs": [],
      "name": "timeUntilProposalStarts",
      "outputs": [
        {
          "internalType": "uint256",
          "name": "",
          "type": "uint256"
        }
      ],
      "stateMutability": "view",
      "type": "function"
    },
    {
      "inputs": [],
      "name": "title",
      "outputs": [
        {
          "internalType": "string",
          "name": "",
          "type": "string"
        }
      ],
      "stateMutability": "view",
      "type": "function"
    },
    {
      "inputs": [],
      "name": "totalVoters",
      "outputs": [
        {
          "internalType": "uint256",
          "name": "",
          "type": "uint256"
        }
      ],
      "stateMutability": "view",
      "type": "function"
    },
    {
      "inputs": [
        {
          "internalType": "externalEuint8",
          "name": "inputEuint8",
          "type": "bytes32"
        },
        {
          "internalType": "bytes",
          "name": "inputProof",
          "type": "bytes"
        }
      ],
      "name": "voteNonweighted",
      "outputs": [],
      "stateMutability": "nonpayable",
      "type": "function"
    },
    {
      "inputs": [
        {
          "internalType": "uint256",
          "name": "",
          "type": "uint256"
        }
      ],
      "name": "votePercentages",
      "outputs": [
        {
          "internalType": "uint256",
          "name": "",
          "type": "uint256"
        }
      ],
      "stateMutability": "view",
      "type": "function"
    },
    {
      "inputs": [
        {
          "internalType": "externalEuint32[]",
          "name": "percentageInputs",
          "type": "bytes32[]"
        },
        {
          "internalType": "bytes",
          "name": "totalPercentageProof",
          "type": "bytes"
        }
      ],
      "name": "voteWeightedFractional",
      "outputs": [],
      "stateMutability": "nonpayable",
      "type": "function"
    },
    {
      "inputs": [
        {
          "internalType": "externalEuint8",
          "name": "inputEuint8",
          "type": "bytes32"
        },
        {
          "internalType": "bytes",
          "name": "inputProof",
          "type": "bytes"
        }
      ],
      "name": "voteWeightedSingle",
      "outputs": [],
      "stateMutability": "nonpayable",
      "type": "function"
    },
    {
      "inputs": [],
      "name": "winningChoice",
      "outputs": [
        {
          "internalType": "uint8",
          "name": "",
          "type": "uint8"
        }
      ],
      "stateMutability": "view",
      "type": "function"
    }
  ],
  "bytecode": "0x60808060405234610c5e575f90613688803803809161001e8285610c7d565b83398101604082820312610c5e5781516001600160401b038111610c5e5782019161018083830312610c5e576040519161018083016001600160401b038111848210176109ab576040528351835261007860208501610ca0565b936020840194855261008c60408201610ca0565b92604085019384526100a060608301610cb4565b94606081019586526080830151966080820197885260a084015160a0830190815260c0850151956003871015610c5e5760c0840196875260e0860151976002891015610c5e5760e08501988952610100870151908115158203610c5e5761010086019182526101208801516001600160401b038111610c5e5783610125918a01610cc8565b61012087019081526101408901519097906001600160401b038111610c5e5784610150918b01610cc8565b61014088019081526101608a015190996001600160401b038211610c5e57019380601f86011215610c5e57845161018681610d1d565b956101946040519788610c7d565b81875260208088019260051b82010191838311610c5e5760208201905b838210610c3157505050505060206101d191610160890195865201610cb4565b946101da610d9a565b5046600103610bfa576101eb610d9a565b506040516101f881610c62565b5f81525f60208201525f60408201525b80515f5160206136685f395f51905f5280546001600160a01b03199081166001600160a01b039384161790915560208301515f5160206136485f395f51905f52805483169184169190911790556040909201517f9e7b61f58c47dc699ac88507c4f5bb9f121c03808c5676a8078fe583e464970280549093169116179055825115610bf35760095b84515160028110918215610be6575b5050610bd757815181516001600160401b0390811691168181118015929190610b9c575b5050610b8d5780516001600160401b031680610b4c57505060038054610100600160481b0319164260081b68ffffffffffffffff00161790555b5160038054600160481b600160881b03191660489290921b70ffffffffffffffff000000000000000000169190911790555115610b465760205b60ff601254911660ff8216179060ff191617601255518051906801000000000000000082116109ab57600a5482600a55808310610ac4575b50600a5f9081525f5160206136285f395f51905f5292916020015b8282106109bf575050505060206012541661091b575b5180601155801515908161090f575b5061090057600880546001600160a01b0319908116339081179092556009805482166001600160a01b03949094169390931790925560068054909216179055518755518051906001600160401b0382116108ec5761040e600154610d34565b601f811161089e575b50602090601f831160011461083a57610447929189918361075e575b50508160011b915f199060031b1c19161790565b6001555b518051906001600160401b03821161082657610468600254610d34565b601f81116107cd575b50602090601f8311600114610769576104a0929188918361075e5750508160011b915f199060031b1c19161790565b6002555b5190600382101561074a57600354905160028110156107365760ff908160881b9060881b1692169071ff00000000000000000000000000000000ff1916171760035560018060a01b0390511660018060a01b0319600454161760045551600555600a5461052961051382610d1d565b916105216040519384610c7d565b808352610d1d565b602082019190601f190136833751906001600160401b0382116107225768010000000000000000821161072257600e5482600e558083106106f1575b50600e83525f5160206136085f395f51905f52835b8381106106dd5784805b600a548110156106ca575f5160206136485f395f51905f5254604051639cd07acb60e01b815260048082018590526024820152906020908290604490829087906001600160a01b03165af19081156106bf57839161068e575b506105e782610d82565b819291549060031b91821b915f19901b19161790558161060682610d82565b90545f5160206136685f395f51905f52546001600160a01b03169160031b1c813b1561068a578291604483926040519485938492635ca4b5b160e11b845260048401523060248401525af1801561067f57610666575b5050600101610584565b8161067091610c7d565b61067b57818361065c565b5080fd5b6040513d84823e3d90fd5b8280fd5b90506020813d82116106b7575b816106a860209383610c7d565b8101031261068a5751836105dd565b3d915061069b565b6040513d85823e3d90fd5b436007556040516127ec9081610e1c8239f35b60019060208451940193818401550161057a565b600e84525f5160206136085f395f51905f529081019083015b8181106107175750610565565b84815560010161070a565b634e487b7160e01b83526041600452602483fd5b634e487b7160e01b86526021600452602486fd5b634e487b7160e01b85526021600452602485fd5b015190505f80610433565b600288528188209190601f198416895b8181106107b5575090846001959493921061079d575b505050811b016002556104a4565b01515f1960f88460031b161c191690555f808061078f565b92936020600181928786015181550195019301610779565b60028852610816907f405787fa12a823e0f2b7631cc41b3ba8828b3321ca811111fa75cd3aa3bb5ace601f850160051c8101916020861061081c575b601f0160051c0190610d6c565b5f610471565b9091508190610809565b634e487b7160e01b87526041600452602487fd5b600189528189209190601f1984168a5b818110610886575090846001959493921061086e575b505050811b0160015561044b565b01515f1960f88460031b161c191690555f8080610860565b9293602060018192878601518155019501930161084a565b600189526108e6907fb10e2d527612073b26eecdfd717e6a320cf44b4afac2b0732d9fcbe2b7fa0cf6601f850160051c8101916020861061081c57601f0160051c0190610d6c565b5f610417565b634e487b7160e01b88526041600452602488fd5b635cd3202560e01b8952600489fd5b6127109150115f6103af565b9850600a54680100000000000000008110156109ab5760018101600a55600a5481101561099757600a5f5260205f2001985f996109588154610d34565b601f8111610977575b50600e6620b139ba30b4b760c91b0190556103a0565b61099190825f52601f60205f20910160051c810190610d6c565b5f610961565b634e487b7160e01b5f52603260045260245ffd5b634e487b7160e01b5f52604160045260245ffd5b80518051906001600160401b0382116109ab576109dc8654610d34565b601f8111610a94575b50602090601f8311600114610a2b5792610a1c836001959460209487965f9261075e5750508160011b915f199060031b1c19161790565b87555b0194019101909261038a565b90601f19831691875f52815f20925f5b818110610a7c5750936020936001969387969383889510610a64575b505050811b018755610a1f565b01515f1960f88460031b161c191690555f8080610a57565b92936020600181928786015181550195019301610a3b565b610abe90875f5260205f20601f850160051c8101916020861061081c57601f0160051c0190610d6c565b5f6109e5565b600a5f525f5160206136285f395f51905f529081019083015b818110610aea575061036f565b80610af760019254610d34565b80610b04575b5001610add565b601f81118314610b1957505f81555b5f610afd565b610b3590825f5283601f60205f20920160051c82019101610d6c565b805f525f6020812081835555610b13565b5f610337565b4211610b7e575160038054610100600160481b03191660089290921b68ffffffffffffffff00169190911790556102fd565b630e23577560e01b5f5260045ffd5b6348f2885560e01b5f5260045ffd5b0390506001600160401b038111610bc35761012c6001600160401b03909116105f806102c3565b634e487b7160e01b5f52601160045260245ffd5b63067c912560e41b5f5260045ffd5b60ff161090505f8061029f565b600a610290565b4662aa36a703610c1157610c0c610db8565b610208565b46617a6903610c2257610c0c610db8565b6373cac13b60e01b5f5260045ffd5b81516001600160401b038111610c5e57602091610c5387848094880101610cc8565b8152019101906101b1565b5f80fd5b606081019081106001600160401b038211176109ab57604052565b601f909101601f19168101906001600160401b038211908210176109ab57604052565b51906001600160401b0382168203610c5e57565b51906001600160a01b0382168203610c5e57565b81601f82011215610c5e578051906001600160401b0382116109ab5760405192610cfc601f8401601f191660200185610c7d565b82845260208383010111610c5e57815f9260208093018386015e8301015290565b6001600160401b0381116109ab5760051b60200190565b90600182811c92168015610d62575b6020831014610d4e57565b634e487b7160e01b5f52602260045260245ffd5b91607f1691610d43565b818110610d77575050565b5f8155600101610d6c565b600e5481101561099757600e5f5260205f2001905f90565b60405190610da782610c62565b5f6040838281528260208201520152565b610dc0610d9a565b50604051610dcd81610c62565b73f0ffdc93b7e186bc2f8cb3daa75d86d1930a433d81527392c920834ec8941d2c77d188936e1f7a6f49c127602082015273be0e383937d564d7ff0bc3b46c51f0bf8d5c311a60408201529056fe60806040526004361015610011575f80fd5b5f3560e01c806302d05d3f14610254578063067c0ac31461024f57806309eef43e1461024a578063216b911614610245578063227326b1146102405780632fcdf3881461023b578063322e5a6b1461023657806335515c1814610231578063389092831461022c5780633bd694d8146102275780633c8b728f146102225780633d792d0e1461021d5780634585e33b146102185780634a79d50c146102135780634e0c72d51461020e57806359f8ae6a146102095780635f5300ff14610204578063620793d9146101ff57806365eb7d88146101fa5780636bf2ffa1146101f557806379502c55146101f05780638217a631146101eb578063849674f7146101e65780638927b030146101e15780639752a719146101dc578063a3fcfd43146101d7578063be9a6555146101d2578063c346c03c146101cd578063c45a0155146101c8578063d1cf0354146101c3578063dc8d31b6146101be578063ed252861146101b9578063efbe1c1c146101b4578063f1b055bb146101af578063f5a1e5fa146101aa5763f6fd7fde146101a5575f80fd5b611404565b6112a2565b61126b565b611242565b6111e6565b6111c9565b61118d565b611165565b61114a565b611121565b611101565b6110ca565b61103f565b610e21565b610d9f565b610d21565b610ac0565b610a3f565b610a22565b610a05565b6109e8565b610980565b61093b565b61077c565b61075a565b61070f565b6106e7565b610464565b6103dc565b6103a5565b610383565b610361565b61033a565b6102cd565b61028f565b610267565b5f91031261026357565b5f80fd5b34610263575f366003190112610263576006546040516001600160a01b039091168152602090f35b34610263575f366003190112610263576009546040516001600160a01b039091168152602090f35b600435906001600160a01b038216820361026357565b34610263576020366003190112610263576001600160a01b036102ee6102b7565b165f52600b602052602060ff60405f2054166040519015158152f35b634e487b7160e01b5f52602160045260245ffd5b6003111561032857565b61030a565b9060038210156103285752565b34610263575f36600319011261026357602060ff6003541661035f604051809261032d565bf35b34610263575f3660031901126102635760206004601254161515604051908152f35b34610263575f3660031901126102635760206008601254161515604051908152f35b34610263575f36600319011261026357602060ff60125416604051908152f35b6002111561032857565b9060028210156103285752565b34610263575f36600319011261026357602060ff60035460881c1661035f60405180926103cf565b9181601f84011215610263578235916001600160401b038311610263576020838186019501011161026357565b9060406003198301126102635760043591602435906001600160401b0382116102635761046091600401610404565b9091565b346102635761047236610431565b6003929192546001600160401b038160081c1642106106d85760481c6001600160401b03164210156106c957335f908152600b602052604090206104b8905b5460ff1690565b6106ba57600954610500906020906104e0906001600160a01b03165b6001600160a01b031690565b5f54906040518080958194630d3e2f4960e41b83523390600484016114f9565b03915afa9081156106b5575f91610686575b50156106775761052d92610527913691610dc1565b90612372565b335f908152600c6020526040902081905561054790611b79565b505f5b600a548110156105f557806105da6105b961057361056960019561106d565b90549060031b1c90565b335f908152600c602052604090206105b39061059c905461059660ff8816611bd5565b90611c54565b6105a4611cf4565b6105ad5f61250c565b91611d0d565b90611dc3565b6105c28361106d565b90919082549060031b91821b915f19901b1916179055565b6105ee6105e96105698361106d565b611b79565b500161054a565b335f908152600b60205260409020610615905b805460ff19166001179055565b610628610623601354611531565b601355565b42337f4d99b957a2bc29a30ebd96a7be8e68fe50a3c701db28a91436490b7d53870ca45f80a36013547fa0b8d01de3a684782858ce7ee571a8267353af610c0b2822cdd968bd17d0c50e5f80a2005b633aee057960e11b5f5260045ffd5b6106a8915060203d6020116106ae575b6106a08183610af0565b8101906114e1565b5f610512565b503d610696565b611512565b637c9a1cf960e01b5f5260045ffd5b6348f2885560e01b5f5260045ffd5b630e23577560e01b5f5260045ffd5b34610263575f366003190112610263576004546040516001600160a01b039091168152602090f35b34610263575f3660031901126102635760035460081c6001600160401b0316428111156107515742810390811161074c576020905b604051908152f35b61151d565b5060205f610744565b34610263575f3660031901126102635760206001601254161515604051908152f35b34610263576020366003190112610263576004356001600160401b038111610263576107ac903690600401610404565b50506008546001600160a01b031633036108f45760035460481c6001600160401b031642106106c95760125460ff16600181166108e557600881166108d657604081166108c757604861080a911760ff1660ff196012541617601255565b5f5b600a54811015610837578061083161082861056960019461106d565b6105b9816125ff565b0161080c565b600a5461084381611564565b905f5b8181106108a7576040517f4f45576ad072eaf166171fd27e67b193bd4cb6ff0ea9021bd0a009e93535720c908061087d86826115dd565b0390a1427f28442a089c49bcf88892bb12a3b12f626b99d4a9a79fa407f1ec44e0add20b745f80a2005b806108b661056960019361106d565b6108c08286611596565b5201610846565b633383b7e560e21b5f5260045ffd5b63e9f473a560e01b5f5260045ffd5b630e46590b60e31b5f5260045ffd5b630636a15760e11b5f5260045ffd5b805180835260209291819084018484015e5f828201840152601f01601f1916010190565b906020610938928181520190610903565b90565b34610263575f3660031901126102635761096a610956610b16565b604051918291602083526020830190610903565b0390f35b60209060031901126102635760043590565b346102635761098e3661096e565b600a548110156109d957600e548110156109d457600e5f527fbb7b4a454dc3493923482f07822329ed19e8244eff582cc204f8554c3620c3fd0154604051908152602090f35b611059565b63067c912560e41b5f5260045ffd5b34610263575f366003190112610263576020600a54604051908152f35b34610263575f366003190112610263576020601354604051908152f35b34610263575f366003190112610263576020601154604051908152f35b34610263576040366003190112610263576004356001600160401b0381116102635736602382011215610263578060040135906001600160401b038211610263573660248360051b8301011161026357602435906001600160401b03821161026357610abe92610ab56024933690600401610404565b939092016115ee565b005b34610263575f3660031901126102635760205f54604051908152f35b634e487b7160e01b5f52604160045260245ffd5b90601f801991011681019081106001600160401b03821117610b1157604052565b610adc565b604051905f6001548060011c91600182168015610be3575b602084108114610bcf5783865285926020840191908115610bb65750600114610b61575b50610b5f92500383610af0565b565b60015f90815291507fb10e2d527612073b26eecdfd717e6a320cf44b4afac2b0732d9fcbe2b7fa0cf65b848310610b9f5750610b5f9350015f610b52565b805482840152869350602090920191600101610b8b565b60ff1916825250610b5f93151560051b0190505f610b52565b634e487b7160e01b5f52602260045260245ffd5b92607f1692610b2e565b604051905f6002548060011c91600182168015610c8a575b602084108114610bcf5783865285926020840191908115610bb65750600114610c355750610b5f92500383610af0565b60025f90815291507f405787fa12a823e0f2b7631cc41b3ba8828b3321ca811111fa75cd3aa3bb5ace5b848310610c735750610b5f9350015f610b52565b805482840152869350602090920191600101610c5f565b92607f1692610c05565b97946001600160401b039290610ce7610cdc610cfd979f9e9d9a96610cce87956101409f9c978f6101609181528160208201520190610903565b8d810360408f015290610903565b9e60608c019061032d565b1660808901521660a087015260c08601906103cf565b6001600160a01b0390811660e0850152610100840191909152166101208201520152565b34610263575f366003190112610263575f54610d3b610b16565b9061096a610d47610bed565b926003549360018060a01b03600454166005549060018060a01b0360065416926007549460405198899860ff8260881c16936001600160401b038360481c169360ff6001600160401b038560081c169416928c610c94565b34610263575f3660031901126102635760206002601254161515604051908152f35b9291926001600160401b038211610b115760405191610dea601f8201601f191660200184610af0565b829481845281830111610263578281602093845f960137010152565b9080601f830112156102635781602061093893359101610dc1565b3461026357606036600319011261026357610e3a6102b7565b6024356001600160401b03811161026357610e59903690600401610e06565b906044356001600160401b03811161026357610e79903690600401610e06565b90306001600160a01b03909116036110305760125460ff166040811615611021576001166108e557600a549082610eaf83611564565b5f5b848110610ff85750610ec39350612047565b600a54610ecf81611564565b915f5b828110610fde57836002610ee860035460ff1690565b610ef18161031e565b14610fa4575b610f0090611933565b610f18610f13610f0e611a94565b612147565b6119c8565b610f3a6001610f2960125460ff1690565b1760ff1660ff196012541617601255565b7f0c2a033ac853f194d045a3b0d94054776dcbec8bcadf04d38f95b8153719f53160405180610f6881611aae565b0390a17f9d7ea59f99ede768686de42a8e000e14be58b7dc7770dcec983b8e06a70eb70f60405180610f9981611abf565b0390a1610abe6121ca565b5f5b8151811015610fd85780610fc7610fbf60019385611596565b516064900490565b610fd18285611596565b5201610fa6565b50610ef7565b8060019160051b6020808286010151918701015201610ed2565b6001919394925061100b6105698261106d565b6110158286611596565b52019184919392610eb1565b63eff8908b60e01b5f5260045ffd5b6349d8af8f60e11b5f5260045ffd5b34610263575f366003190112610263576020610744612307565b634e487b7160e01b5f52603260045260245ffd5b600e548110156109d457600e5f5260205f2001905f90565b600f548110156109d457600f5f5260205f2001905f90565b6014548110156109d45760145f5260205f2001905f90565b80548210156109d4575f5260205f2001905f90565b34610263576110d83661096e565b600f5481101561026357600f5f525f5160206127c05f395f51905f520154604051908152602090f35b34610263575f36600319011261026357602060ff60105416604051908152f35b34610263575f3660031901126102635760206001600160401b0360035460081c16604051908152f35b34610263575f3660031901126102635761096a610956610bed565b34610263575f366003190112610263576008546040516001600160a01b039091168152602090f35b34610263575f3660031901126102635760035460481c6001600160401b0316428111156107515742810390811161074c57602090604051908152f35b34610263575f366003190112610263576020600554604051908152f35b34610263575f366003190112610263576111fe611add565b6040518091602082016020835281518091526020604084019201905f5b818110611229575050500390f35b825184528594506020938401939092019160010161121b565b34610263575f3660031901126102635760206001600160401b0360035460481c16604051908152f35b34610263576112793661096e565b6014548110156102635760145f525f5160206127a05f395f51905f520154604051908152602090f35b34610263576112b036610431565b916003546001600160401b038160081c1642106106d8576001600160401b038160481c164210156106c957335f908152600b602052604090206112f2906104b1565b6106ba5760019060ff166113058161031e565b036113f557600954611326906020906104e0906001600160a01b03166104d4565b03915afa9081156106b5575f916113d6575b5015610677576105276113739261136161135c611353611e5d565b63ffffffff1690565b611cfe565b9461136b86611b79565b503691610dc1565b61137c81611b79565b505f5b600a548110156105f557806113c06105b961139e61056960019561106d565b6105b36113b66113b060ff8716611bd5565b88611c54565b886105ad5f61250c565b6113cf6105e96105698361106d565b500161137f565b6113ef915060203d6020116106ae576106a08183610af0565b5f611338565b635cd3202560e01b5f5260045ffd5b34610263576114123661096e565b600a548110156109d957600a5f5260205f2001604051905f9080548060011c91600182169182156114d7575b602084108314610bcf5783865260208601929081156114ba575060011461147c575b61096a8561147081870382610af0565b60405191829182610927565b61148c919293505f5260205f2090565b915f925b8184106114a6575050016114708261096a611460565b805484840152602090930192600101611490565b60ff19168352505090151560051b0190506114708261096a611460565b92607f169261143e565b90816020910312610263575180151581036102635790565b9081526001600160a01b03909116602082015260400190565b6040513d5f823e3d90fd5b634e487b7160e01b5f52601160045260245ffd5b5f19811461074c5760010190565b5f1981019190821161074c57565b6001600160401b038111610b115760051b60200190565b9061156e8261154d565b61157b6040519182610af0565b828152809261158c601f199161154d565b0190602036910137565b80518210156109d45760209160051b010190565b90602080835192838152019201905f5b8181106115c75750505090565b82518452602093840193909201916001016115ba565b9060206109389281815201906115aa565b9392936003546001600160401b038160081c1642106106d8576001600160401b038160481c164210156106c957335f908152600b60205260409020611632906104b1565b6106ba5760029060ff166116458161031e565b036113f557600a54820361185a57841561184b57600954611675906020906104e0906001600160a01b03166104d4565b03915afa9081156106b5575f9161182c575b50156106775761169b61135c611353611e5d565b6116a481611b79565b506116c66116b3600a54611564565b335f908152600d60205260409020611881565b5f5b600a5481101561173e57806117166116f86116e66001948888611905565b356116f2368c8b610dc1565b9061246c565b335f908152600d602052604090206105c29084906110b5565b6110b5565b335f908152600d60205260409020611737906105e9906105699084906110b5565b50016116c8565b5094505050505f5b600a548110156117b4578061179e6105b96117838661177e6105696001976117113360018060a01b03165f52600d60205260405f2090565b611f97565b61178c81611b79565b506117996105698561106d565b611dc3565b6117ad6105e96105698361106d565b5001611746565b50335f908152600b602052604090209091506117cf90610608565b6117dd610623601354611531565b42337f4d99b957a2bc29a30ebd96a7be8e68fe50a3c701db28a91436490b7d53870ca45f80a36013547fa0b8d01de3a684782858ce7ee571a8267353af610c0b2822cdd968bd17d0c50e5f80a2565b611845915060203d6020116106ae576106a08183610af0565b5f611687565b63249969bf60e01b5f5260045ffd5b6315d9c77160e21b5f5260045ffd5b90612710820291808304612710149015171561074c57565b8151916001600160401b038311610b1157600160401b8311610b115781548383558084106118df575b5060206118bc9101915f5260205f2090565b5f5b8381106118cb5750505050565b6001906020845194019381840155016118be565b825f528360205f2091820191015b8181106118fa57506118aa565b5f81556001016118ed565b91908110156109d45760051b0190565b811561191f570490565b634e487b7160e01b5f52601260045260245ffd5b8051906001600160401b038211610b1157600160401b8211610b1157600f5482600f55808310611997575b50600f5f526020015f5160206127c05f395f51905f525f5b8381106119835750505050565b600190602084519401938184015501611976565b600f5f525f5160206127c05f395f51905f529081019083015b8181106119bd575061195e565b5f81556001016119b0565b8051906001600160401b038211610b1157600160401b8211610b115760145482601455808310611a2c575b5060145f526020015f5160206127a05f395f51905f525f5b838110611a185750505050565b600190602084519401938184015501611a0b565b60145f525f5160206127a05f395f51905f529081019083015b818110611a5257506119f3565b5f8155600101611a45565b90602082549182815201915f5260205f20905f5b818110611a7e5750505090565b8254845260209093019260019283019201611a71565b60405190610b5f82611aa781600f611a5d565b0383610af0565b60206109389181815201600f611a5d565b602061093891818152016014611a5d565b9190820180921161074c57565b6001611aeb60125460ff1690565b16156108e557611afc600a54611564565b905f915f600f54905b818110611b5957508315611b54575f5b818110611b23575090925050565b80611b4386611b3e611b39610569600196611085565b611869565b611915565b611b4d8286611596565b5201611b15565b509150565b93611b72600191611b6c61056988611085565b90611ad0565b9401611b05565b5f5160206127805f395f51905f52546001600160a01b0316803b15610263575f6040518092635ca4b5b160e11b8252818381611bb93089600484016114f9565b03925af180156106b557611bcb575090565b5f61093891610af0565b5f5160206127605f395f51905f5254604051639cd07acb60e01b815260ff92909216600483015260026024830152602090829060449082905f906001600160a01b03165af19081156106b5575f91611c2b575090565b610938915060203d602011611c4d575b611c458183610af0565b810190611e4e565b503d611c3b565b5f602091611cc1938115611ce4575b8015611cd6575b5f5160206127605f395f51905f525460405163f77f3f1d60e01b8152600481019390935260248301919091526001600160f81b031983166044830152909384926001600160a01b0390921691839182906064820190565b03925af19081156106b5575f91611c2b575090565b50611cdf6124b9565b611c6a565b9050611cee6124b9565b90611c63565b610938600161250c565b63ffffffff610938911661250c565b91908215611d47575b610938928115611d37575b826125ad579150611d315f61250c565b916125ad565b9050611d4161255b565b90611d21565b5f5160206127605f395f51905f5254604051639cd07acb60e01b81525f600482018190526024820181905290945060209185916044918391906001600160a01b03165af180156106b557610938935f91611da4575b509250611d16565b611dbd915060203d602011611c4d57611c458183610af0565b5f611d9c565b5f602091611cc1938115611e3e575b8015611e30575b5f5160206127605f395f51905f525460405163022f65e760e31b8152600481019390935260248301919091526001600160f81b031983166044830152909384926001600160a01b0390921691839182906064820190565b50611e3961255b565b611dd9565b9050611e4861255b565b90611dd2565b90816020910312610263575190565b60035460019060881c60ff16611e72816103c5565b14611f1a575b6004546001600160a01b03168015611eec57611ed090602090611ea3906001600160a01b03166104d4565b600754604051630748d63560e31b8152336004820152602481019190915292839190829081906044820190565b03915afa9081156106b5575f91611efb575b508015611eec5790565b631f05dadd60e21b5f5260045ffd5b611f14915060203d602011611c4d57611c458183610af0565b5f611ee2565b600454611f31906104d4906001600160a01b031681565b6040516370a0823160e01b815233600482015290602090829060249082905afa9081156106b5575f91611f78575b506005541115611e7857637222ae5760e11b5f5260045ffd5b611f91915060203d602011611c4d57611c458183610af0565b5f611f5f565b5f602091611cc1938115612012575b8015612004575b5f5160206127605f395f51905f5254604051630afe14ad60e31b8152600481019390935260248301919091526001600160f81b031983166044830152909384926001600160a01b0390921691839182906064820190565b5061200d61255b565b611fad565b905061201c61255b565b90611fa6565b9091612039610938936040845260408401906115aa565b916020818403910152610903565b9160206120c85f9260018060a01b037f9e7b61f58c47dc699ac88507c4f5bb9f121c03808c5676a8078fe583e46497025416906040519485809481936378542ead60e01b8352606060048401526120b66120a4606485018d6115aa565b8481036003190160248601528b610903565b83810360031901604485015290610903565b03925af180156106b5576120e1915f9161212a57501590565b61211b577fc6366bab028b8d033cb362cfd1f2f3457ef4e92fc738b6788b90d5a7846367a09161211660405192839283612022565b0390a1565b63cf6c44e960e01b5f5260045ffd5b612143915060203d6020116106ae576106a08183610af0565b1590565b6121518151611564565b905f925f935b825185101561217f5761216a8584611596565b51810180911161074c57600190940193612157565b935091908361218d57509150565b5f5b81518110156121c357806121b286611b3e6121ac60019587611596565b51611869565b6121bc8286611596565b520161218f565b5090925050565b60026121d860125460ff1690565b166122f85760016121e7612688565b909210156122875750506122026010610f2960125460ff1690565b61222460fb61221360125460ff1690565b1660ff1660ff196012541617601255565b61223560ff80196010541617601055565b6122466002610f2960125460ff1690565b60105460ff1660ff600461225c60125460ff1690565b16151591167f49dcecd7b8aeaed781643c3e998589873154c5eb7885bc5067f5d4d939c2bf405f80a3565b61229b8160ff1660ff196010541617601055565b60115490816122d2575050156122c1576122bc6004610f2960125460ff1690565b612235565b6122bc60fb61221360125460ff1690565b6122e19192506105699061109d565b11156122c1576122bc6004610f2960125460ff1690565b6336ab81e160e11b5f5260045ffd5b4660010361231457600190565b4662aa36a7036123245761271190565b617a694614612331575f90565b5f1990565b9081526001600160a01b0390911660208201526080604082018190529093929161236291850190610903565b9260548210156103285760600152565b60026020916123c094935f6123a06104d46104d45f5160206127605f395f51905f525460018060a01b031690565b926040519788958694859363045fc19560e11b8552339060048601612336565b03925af19182156106b5575f9261244b575b505f5160206127805f395f51905f525482906123f8906104d4906001600160a01b031681565b803b1561026357604051630f8e573b60e21b8152915f918391829084908290612426903390600484016114f9565b03925af180156106b5576124375750565b806124455f610b5f93610af0565b80610259565b61246591925060203d602011611c4d57611c458183610af0565b905f6123d2565b60046020916123c094935f61249a6104d46104d45f5160206127605f395f51905f525460018060a01b031690565b926040519788958694859363045fc19560e11b85523390838601612336565b5f5160206127605f395f51905f5254604051639cd07acb60e01b81525f60048201819052600260248301529091602091839160449183916001600160a01b03165af19081156106b5575f91611c2b575090565b60205f9160445f5160206127605f395f51905f5254916040519485938492639cd07acb60e01b845260048401526004602484015260018060a01b03165af19081156106b5575f91611c2b575090565b5f5160206127605f395f51905f5254604051639cd07acb60e01b81525f600480830182905260248301529091602091839160449183916001600160a01b03165af19081156106b5575f91611c2b575090565b9060646020925f60018060a01b035f5160206127605f395f51905f5254166040519687958694637702dcff60e01b86526004860152602485015260448401525af19081156106b5575f91611c2b575090565b612609600161154d565b906126176040519283610af0565b60018252612625600161154d565b6020830190601f19013682378251156109d457525f5160206127805f395f51905f525461265c906104d4906001600160a01b031681565b803b1561026357604051637d6e912360e11b8152915f91839182908490829061242690600483016115dd565b602061269660125460ff1690565b1615612758576126a7600a5461153f565b5f915f5f925f5f91600a54925b8381106126c45750505050929190565b8181036126d4575b6001016126b4565b9390959180979397158015612744575b1561270e57505050506126f961056982611085565b9360ff821691600194600186925b90506126cc565b9195909383612722610569839a969a611085565b14612730575b600190612707565b9561273c600191611531565b969050612728565b508361275261056987611085565b116126e4565b5f196126a756fe9e7b61f58c47dc699ac88507c4f5bb9f121c03808c5676a8078fe583e46497019e7b61f58c47dc699ac88507c4f5bb9f121c03808c5676a8078fe583e4649700ce6d7b5282bd9a3661ae061feed1dbda4e52ab073b1f9285be6e155d9c38d4ec8d1108e10bcb7c27dddfc02ed9d693a074039d026cf4ea4240b40f7d581ac802a164736f6c634300081b000abb7b4a454dc3493923482f07822329ed19e8244eff582cc204f8554c3620c3fdc65a7bb8d6351c1cf70c95a316cc6a92839c986682d98bc35f958f4883f9d2a89e7b61f58c47dc699ac88507c4f5bb9f121c03808c5676a8078fe583e46497019e7b61f58c47dc699ac88507c4f5bb9f121c03808c5676a8078fe583e4649700",
  "linkReferences": {},
  "deployedLinkReferences": {}
}