{
  "_format": "hh-sol-artifact-1",
  "contractName": "SpaceRegistry",
  "sourceName": "contracts/SpaceRegistry.sol",
  "abi": [
    {
      "inputs": [
        {
          "internalType": "address",
          "name": "_ensRegistry",
          "type": "address"
        }
      ],
      "stateMutability": "nonpayable",
      "type": "constructor"
    },
    {
      "inputs": [],
      "name": "AlreadyMember",
      "type": "error"
    },
    {
      "inputs": [],
      "name": "CannotJoin",
      "type": "error"
    },
    {
      "inputs": [],
      "name": "InvalidDisplayName",
      "type": "error"
    },
    {
      "inputs": [],
      "name": "InvalidENSName",
      "type": "error"
    },
    {
      "inputs": [],
      "name": "NotENSOwner",
      "type": "error"
    },
    {
      "inputs": [],
      "name": "NotMember",
      "type": "error"
    },
    {
      "inputs": [],
      "name": "NotSpaceOwner",
      "type": "error"
    },
    {
      "inputs": [],
      "name": "SpaceAlreadyExists",
      "type": "error"
    },
    {
      "inputs": [],
      "name": "SpaceDoesNotExist",
      "type": "error"
    },
    {
      "inputs": [],
      "name": "ZeroAddress",
      "type": "error"
    },
    {
      "anonymous": false,
      "inputs": [
        {
          "indexed": true,
          "internalType": "bytes32",
          "name": "spaceId",
          "type": "bytes32"
        },
        {
          "indexed": true,
          "internalType": "address",
          "name": "admin",
          "type": "address"
        }
      ],
      "name": "AdminAdded",
      "type": "event"
    },
    {
      "anonymous": false,
      "inputs": [
        {
          "indexed": true,
          "internalType": "bytes32",
          "name": "spaceId",
          "type": "bytes32"
        },
        {
          "indexed": true,
          "internalType": "address",
          "name": "admin",
          "type": "address"
        }
      ],
      "name": "AdminRemoved",
      "type": "event"
    },
    {
      "anonymous": false,
      "inputs": [
        {
          "indexed": true,
          "internalType": "bytes32",
          "name": "spaceId",
          "type": "bytes32"
        },
        {
          "indexed": true,
          "internalType": "address",
          "name": "member",
          "type": "address"
        }
      ],
      "name": "MemberJoined",
      "type": "event"
    },
    {
      "anonymous": false,
      "inputs": [
        {
          "indexed": true,
          "internalType": "bytes32",
          "name": "spaceId",
          "type": "bytes32"
        },
        {
          "indexed": true,
          "internalType": "address",
          "name": "member",
          "type": "address"
        }
      ],
      "name": "MemberLeft",
      "type": "event"
    },
    {
      "anonymous": false,
      "inputs": [
        {
          "indexed": true,
          "internalType": "bytes32",
          "name": "spaceId",
          "type": "bytes32"
        },
        {
          "indexed": false,
          "internalType": "string",
          "name": "ensName",
          "type": "string"
        },
        {
          "indexed": false,
          "internalType": "string",
          "name": "displayName",
          "type": "string"
        },
        {
          "indexed": true,
          "internalType": "address",
          "name": "owner",
          "type": "address"
        }
      ],
      "name": "SpaceCreated",
      "type": "event"
    },
    {
      "anonymous": false,
      "inputs": [
        {
          "indexed": true,
          "internalType": "bytes32",
          "name": "spaceId",
          "type": "bytes32"
        }
      ],
      "name": "SpaceDeactivated",
      "type": "event"
    },
    {
      "anonymous": false,
      "inputs": [
        {
          "indexed": true,
          "internalType": "bytes32",
          "name": "spaceId",
          "type": "bytes32"
        },
        {
          "indexed": false,
          "internalType": "string",
          "name": "newDisplayName",
          "type": "string"
        },
        {
          "indexed": true,
          "internalType": "address",
          "name": "updatedBy",
          "type": "address"
        }
      ],
      "name": "SpaceDisplayNameUpdated",
      "type": "event"
    },
    {
      "anonymous": false,
      "inputs": [
        {
          "indexed": true,
          "internalType": "bytes32",
          "name": "spaceId",
          "type": "bytes32"
        },
        {
          "indexed": true,
          "internalType": "address",
          "name": "previousOwner",
          "type": "address"
        },
        {
          "indexed": true,
          "internalType": "address",
          "name": "newOwner",
          "type": "address"
        }
      ],
      "name": "SpaceTransferred",
      "type": "event"
    },
    {
      "anonymous": false,
      "inputs": [
        {
          "indexed": true,
          "internalType": "bytes32",
          "name": "spaceId",
          "type": "bytes32"
        },
        {
          "indexed": true,
          "internalType": "address",
          "name": "user",
          "type": "address"
        },
        {
          "indexed": true,
          "internalType": "bool",
          "name": "status",
          "type": "bool"
        }
      ],
      "name": "WhitelistUpdated",
      "type": "event"
    },
    {
      "inputs": [
        {
          "internalType": "bytes32",
          "name": "spaceId",
          "type": "bytes32"
        },
        {
          "internalType": "address",
          "name": "admin",
          "type": "address"
        }
      ],
      "name": "addSpaceAdmin",
      "outputs": [],
      "stateMutability": "nonpayable",
      "type": "function"
    },
    {
      "inputs": [
        {
          "internalType": "bytes32",
          "name": "spaceId",
          "type": "bytes32"
        },
        {
          "internalType": "address",
          "name": "user",
          "type": "address"
        }
      ],
      "name": "addToWhitelist",
      "outputs": [],
      "stateMutability": "nonpayable",
      "type": "function"
    },
    {
      "inputs": [
        {
          "internalType": "string",
          "name": "ensName",
          "type": "string"
        },
        {
          "internalType": "string",
          "name": "displayName",
          "type": "string"
        },
        {
          "internalType": "enum MembershipType",
          "name": "membershipType",
          "type": "uint8"
        },
        {
          "internalType": "address",
          "name": "criteriaContract",
          "type": "address"
        },
        {
          "internalType": "uint256",
          "name": "criteriaAmount",
          "type": "uint256"
        }
      ],
      "name": "createSpace",
      "outputs": [],
      "stateMutability": "nonpayable",
      "type": "function"
    },
    {
      "inputs": [
        {
          "internalType": "bytes32",
          "name": "spaceId",
          "type": "bytes32"
        }
      ],
      "name": "deactivateSpace",
      "outputs": [],
      "stateMutability": "nonpayable",
      "type": "function"
    },
    {
      "inputs": [],
      "name": "ens",
      "outputs": [
        {
          "internalType": "contract IENS",
          "name": "",
          "type": "address"
        }
      ],
      "stateMutability": "view",
      "type": "function"
    },
    {
      "inputs": [
        {
          "internalType": "address",
          "name": "owner",
          "type": "address"
        }
      ],
      "name": "getOwnerSpaces",
      "outputs": [
        {
          "internalType": "bytes32[]",
          "name": "",
          "type": "bytes32[]"
        }
      ],
      "stateMutability": "view",
      "type": "function"
    },
    {
      "inputs": [
        {
          "internalType": "bytes32",
          "name": "spaceId",
          "type": "bytes32"
        }
      ],
      "name": "getSpace",
      "outputs": [
        {
          "internalType": "string",
          "name": "ensName",
          "type": "string"
        },
        {
          "internalType": "string",
          "name": "displayName",
          "type": "string"
        },
        {
          "internalType": "address",
          "name": "owner",
          "type": "address"
        },
        {
          "internalType": "uint256",
          "name": "createdAt",
          "type": "uint256"
        },
        {
          "internalType": "bool",
          "name": "active",
          "type": "bool"
        },
        {
          "internalType": "enum MembershipType",
          "name": "membershipType",
          "type": "uint8"
        },
        {
          "internalType": "address",
          "name": "criteriaContract",
          "type": "address"
        },
        {
          "internalType": "uint256",
          "name": "criteriaAmount",
          "type": "uint256"
        }
      ],
      "stateMutability": "view",
      "type": "function"
    },
    {
      "inputs": [
        {
          "internalType": "bytes32",
          "name": "spaceId",
          "type": "bytes32"
        }
      ],
      "name": "getSpaceMembers",
      "outputs": [
        {
          "internalType": "address[]",
          "name": "",
          "type": "address[]"
        }
      ],
      "stateMutability": "view",
      "type": "function"
    },
    {
      "inputs": [
        {
          "internalType": "bytes32",
          "name": "spaceId",
          "type": "bytes32"
        },
        {
          "internalType": "address",
          "name": "account",
          "type": "address"
        }
      ],
      "name": "isSpaceAdmin",
      "outputs": [
        {
          "internalType": "bool",
          "name": "",
          "type": "bool"
        }
      ],
      "stateMutability": "view",
      "type": "function"
    },
    {
      "inputs": [
        {
          "internalType": "bytes32",
          "name": "spaceId",
          "type": "bytes32"
        },
        {
          "internalType": "address",
          "name": "account",
          "type": "address"
        }
      ],
      "name": "isSpaceOwner",
      "outputs": [
        {
          "internalType": "bool",
          "name": "",
          "type": "bool"
        }
      ],
      "stateMutability": "view",
      "type": "function"
    },
    {
      "inputs": [
        {
          "internalType": "bytes32",
          "name": "spaceId",
          "type": "bytes32"
        }
      ],
      "name": "joinSpace",
      "outputs": [],
      "stateMutability": "nonpayable",
      "type": "function"
    },
    {
      "inputs": [
        {
          "internalType": "bytes32",
          "name": "spaceId",
          "type": "bytes32"
        }
      ],
      "name": "leaveSpace",
      "outputs": [],
      "stateMutability": "nonpayable",
      "type": "function"
    },
    {
      "inputs": [
        {
          "internalType": "string",
          "name": "name",
          "type": "string"
        }
      ],
      "name": "namehash",
      "outputs": [
        {
          "internalType": "bytes32",
          "name": "",
          "type": "bytes32"
        }
      ],
      "stateMutability": "pure",
      "type": "function"
    },
    {
      "inputs": [
        {
          "internalType": "address",
          "name": "owner",
          "type": "address"
        },
        {
          "internalType": "uint256",
          "name": "",
          "type": "uint256"
        }
      ],
      "name": "ownerSpaces",
      "outputs": [
        {
          "internalType": "bytes32",
          "name": "spaces",
          "type": "bytes32"
        }
      ],
      "stateMutability": "view",
      "type": "function"
    },
    {
      "inputs": [
        {
          "internalType": "bytes32",
          "name": "spaceId",
          "type": "bytes32"
        },
        {
          "internalType": "address",
          "name": "user",
          "type": "address"
        }
      ],
      "name": "removeFromWhitelist",
      "outputs": [],
      "stateMutability": "nonpayable",
      "type": "function"
    },
    {
      "inputs": [
        {
          "internalType": "bytes32",
          "name": "spaceId",
          "type": "bytes32"
        },
        {
          "internalType": "address",
          "name": "admin",
          "type": "address"
        }
      ],
      "name": "removeSpaceAdmin",
      "outputs": [],
      "stateMutability": "nonpayable",
      "type": "function"
    },
    {
      "inputs": [
        {
          "internalType": "bytes32",
          "name": "spaceId",
          "type": "bytes32"
        },
        {
          "internalType": "address",
          "name": "admin",
          "type": "address"
        }
      ],
      "name": "spaceAdmins",
      "outputs": [
        {
          "internalType": "bool",
          "name": "isAdmin",
          "type": "bool"
        }
      ],
      "stateMutability": "view",
      "type": "function"
    },
    {
      "inputs": [
        {
          "internalType": "bytes32",
          "name": "spaceId",
          "type": "bytes32"
        }
      ],
      "name": "spaceExists",
      "outputs": [
        {
          "internalType": "bool",
          "name": "exists",
          "type": "bool"
        }
      ],
      "stateMutability": "view",
      "type": "function"
    },
    {
      "inputs": [
        {
          "internalType": "bytes32",
          "name": "spaceId",
          "type": "bytes32"
        }
      ],
      "name": "spaceIsActive",
      "outputs": [
        {
          "internalType": "bool",
          "name": "",
          "type": "bool"
        }
      ],
      "stateMutability": "view",
      "type": "function"
    },
    {
      "inputs": [
        {
          "internalType": "bytes32",
          "name": "spaceId",
          "type": "bytes32"
        },
        {
          "internalType": "address",
          "name": "member",
          "type": "address"
        }
      ],
      "name": "spaceMembers",
      "outputs": [
        {
          "internalType": "bool",
          "name": "isMember",
          "type": "bool"
        }
      ],
      "stateMutability": "view",
      "type": "function"
    },
    {
      "inputs": [
        {
          "internalType": "bytes32",
          "name": "spaceId",
          "type": "bytes32"
        },
        {
          "internalType": "address",
          "name": "user",
          "type": "address"
        }
      ],
      "name": "spaceWhitelist",
      "outputs": [
        {
          "internalType": "bool",
          "name": "isWhitelisted",
          "type": "bool"
        }
      ],
      "stateMutability": "view",
      "type": "function"
    },
    {
      "inputs": [
        {
          "internalType": "bytes32",
          "name": "spaceId",
          "type": "bytes32"
        }
      ],
      "name": "spaces",
      "outputs": [
        {
          "internalType": "bytes32",
          "name": "spaceId",
          "type": "bytes32"
        },
        {
          "internalType": "address",
          "name": "owner",
          "type": "address"
        },
        {
          "internalType": "uint256",
          "name": "createdAt",
          "type": "uint256"
        },
        {
          "internalType": "uint256",
          "name": "criteriaAmount",
          "type": "uint256"
        },
        {
          "internalType": "address",
          "name": "criteriaContract",
          "type": "address"
        },
        {
          "internalType": "enum MembershipType",
          "name": "membershipType",
          "type": "uint8"
        },
        {
          "internalType": "bool",
          "name": "active",
          "type": "bool"
        },
        {
          "internalType": "string",
          "name": "ensName",
          "type": "string"
        },
        {
          "internalType": "string",
          "name": "displayName",
          "type": "string"
        }
      ],
      "stateMutability": "view",
      "type": "function"
    },
    {
      "inputs": [
        {
          "internalType": "bytes32",
          "name": "spaceId",
          "type": "bytes32"
        },
        {
          "internalType": "address",
          "name": "newOwner",
          "type": "address"
        }
      ],
      "name": "transferSpaceOwnership",
      "outputs": [],
      "stateMutability": "nonpayable",
      "type": "function"
    },
    {
      "inputs": [
        {
          "internalType": "bytes32",
          "name": "spaceId",
          "type": "bytes32"
        },
        {
          "internalType": "string",
          "name": "newDisplayName",
          "type": "string"
        }
      ],
      "name": "updateSpaceDisplayName",
      "outputs": [],
      "stateMutability": "nonpayable",
      "type": "function"
    }
  ],
  "bytecode": "0x608034606f57601f611e2a38819003918201601f19168301916001600160401b03831184841017607357808492602094604052833981010312606f57516001600160a01b03811690819003606f575f80546001600160a01b031916919091179055604051611da290816100888239f35b5f80fd5b634e487b7160e01b5f52604160045260245ffdfe60806040526004361015610011575f80fd5b5f3560e01c8063098799621461160a578063165e6b931461153a578063335a1902146113c15780633f15457f1461139a57806349bafcc914611342578063684e4ac7146111a85780636d4c60e6146111185780636e015b221461107057806373fe27541461101c578063782d41db14610f9257806379b6e5b4146109ee578063813e7943146109a55780638247e89f146108ed578063923222d1146108a45780639bc190db146108195780639c93521714610648578063a5c97cb414610619578063aa00db0514610572578063aa3be2eb14610478578063d002c5a6146103c4578063d3e2f4901461037b578063e8232fe7146102ba578063e994529e146101f15763fd5862a414610121575f80fd5b346101ed5760403660031901126101ed5760043561013d6116ca565b90805f52600360205260ff60405f205416156101de575f81815260016020819052604090912001546001600160a01b031633036101cf575f8181526005602090815260408083206001600160a01b03909516808452949091528120805460ff191660019081179091559291907f901b2086bb73a0582fac109df77983893381d5c3126e8d378ef665f400d314819080a4005b638c09e73f60e01b5f5260045ffd5b63be34080760e01b5f5260045ffd5b5f80fd5b346101ed5760203660031901126101ed576004355f52600160205260405f2080546102b660018060a01b03600184015416926102a760028201549160ff6003820154600483015490610251600661024a600587016117b5565b95016117b5565b95604051998a998a5260208a01526040890152606088015260018060a01b038116608088015261028960a08801838360a01c16611770565b60a81c16151560c086015261012060e086015261012085019061174c565b9083820361010085015261174c565b0390f35b346101ed5760203660031901126101ed576004355f52600160205261032a60405f2060018060a01b0360018201541660028201546004830154600384015491610338610314600661030d600589016117b5565b97016117b5565b604051978897610100895261010089019061174c565b90878203602089015261174c565b936040860152606085015260ff8160a81c161515608085015261036460a0850160ff8360a01c16611770565b6001600160a01b031660c084015260e08301520390f35b346101ed5760403660031901126101ed576103946116ca565b6004355f52600460205260405f209060018060a01b03165f52602052602060ff60405f2054166040519015158152f35b346101ed5760203660031901126101ed576001600160a01b036103e56116e0565b165f52600260205260405f20604051806020835491828152019081935f5260205f20905f5b8181106104625750505081610420910382611658565b604051918291602083019060208452518091526040830191905f5b818110610449575050500390f35b825184528594506020938401939092019160010161043b565b825484526020909301926001928301920161040a565b346101ed5760203660031901126101ed57600435805f52600360205260ff60405f205416156101de57805f52600160205260ff600460405f20015460a81c16156101de575f81815260046020908152604080832033845290915290205460ff16610563576104e63382611c32565b1561055457805f52600460205260405f2060018060a01b0333165f5260205260405f20600160ff19825416179055805f52600160205261052c33600760405f2001611aa2565b33907fdabee0b25f35888f14428f2369f0d67a033a857623827e3efa07eb83471170aa5f80a3005b630bd2af7560e01b5f5260045ffd5b6340803a5f60e11b5f5260045ffd5b346101ed5760403660031901126101ed5760043561058e6116ca565b90805f52600360205260ff60405f205416156101de575f81815260016020819052604090912001546001600160a01b031633036101cf575f8181526005602090815260408083206001600160a01b03909516808452949091528120805460ff1916905591907f901b2086bb73a0582fac109df77983893381d5c3126e8d378ef665f400d314818380a4005b346101ed5760203660031901126101ed576004355f526003602052602060ff60405f2054166040519015158152f35b346101ed5760403660031901126101ed576004356024356001600160401b0381116101ed5761067b90369060040161171f565b9190815f52600360205260ff60405f205416156101de575f82815260016020819052604090912001546001600160a01b031633036101cf57601e831161080a57815f526001602052600660405f20016001600160401b0384116107f6576106ec846106e6835461177d565b83611a5f565b835f601f8211600114610768579161073f827f81b8c911699fa2d2859848fa5f805ebfcd7338d5451527bbbd3b4be1bcd346089593610758955f9161075d575b508160011b915f199060031b1c19161790565b90555b6040519182916020835233966020840191611ac5565b0390a3005b90508401358961072c565b5f8381526020812092508690601f198216905b8181106107db5750917f81b8c911699fa2d2859848fa5f805ebfcd7338d5451527bbbd3b4be1bcd346089593916107589593106107c2575b5050600186811b019055610742565b8301355f19600389901b60f8161c1916905586806107b3565b8684013585556001909401936020938401938993500161077b565b634e487b7160e01b5f52604160045260245ffd5b6321b9948d60e21b5f5260045ffd5b346101ed5760203660031901126101ed57600435805f52600360205260ff60405f205416156101de575f81815260016020819052604090912001546001600160a01b031633036101cf575f818152600160205260408120600401805460ff60a81b191690557fc8ae47feabcfb569bcc25903f07d3fe21155b0f35e53213f03198fc06ac844679080a2005b346101ed5760403660031901126101ed576108bd6116ca565b6004355f52600560205260405f209060018060a01b03165f52602052602060ff60405f2054166040519015158152f35b346101ed5760403660031901126101ed576004356109096116ca565b815f52600360205260ff60405f205416156101de575f82815260016020819052604090912001546001600160a01b031633036101cf576001600160a01b031690811561099657805f52600660205260405f20825f5260205260405f20600160ff198254161790557ff91205dfd6045d43ed190b1272b57bca9409defd9b0ce6fa8966883c813befda5f80a3005b63d92e233d60e01b5f5260045ffd5b346101ed5760403660031901126101ed576109be6116ca565b6004355f52600660205260405f209060018060a01b03165f52602052602060ff60405f2054166040519015158152f35b346101ed5760a03660031901126101ed576004356001600160401b0381116101ed57610a1e90369060040161171f565b906024356001600160401b0381116101ed57610a3e90369060040161171f565b90916044359360048510156101ed576064356001600160a01b03811693908490036101ed57610a76610a71368486611694565b611ae5565b15610f8357601e811161080a57610a96610a91368486611694565b61187a565b5f546040516302571be360e01b81526004810192909252602090829060249082906001600160a01b03165afa908115610f78575f91610f36575b50336001600160a01b0390911603610f2757604051602081019083858337610b0b6020828681015f838201520301601f198101835282611658565b51902093845f52600360205260ff60405f205416610f185760209660405191610b348984611658565b5f83525f368137604051916101408301918383106001600160401b038411176107f6578a8a928a9460405284865281860133815260408701428152606088019160843583526080890195865260a0890193845260c0890194600186528d8d3690610b9d92611694565b9760e08b019889528c3690610bb192611694565b6101008b019081526101208b019b8c525f998a52600191829052604090992099518a55905190890180546001600160a01b03199081166001600160a01b0393841617909155915160028a01559151600389015593516004808901805490961691909216178455905190811015610f04578254915161ffff60a01b1990921660a09190911b60ff60a01b161790151560a81b60ff60a81b161790555180516005840191906001600160401b0381116107f657610c7681610c70855461177d565b85611a5f565b8b8c601f8311600114610e9f57508190610ca5935f92610e2a575b50508160011b915f199060031b1c19161790565b90555b51805160068301916001600160401b0382116107f657610ccc82610c70855461177d565b8a90601f8311600114610e35579180610cfe9260079695945f92610e2a5750508160011b915f199060031b1c19161790565b90555b019051908151916001600160401b0383116107f657600160401b83116107f65788908254848455808510610e0f575b5001905f52875f205f5b838110610df45788887fd441360a293fa6c11c1f59927d24a0641f1a92d4bbaeba2693fd873322dfba1489896107588f8b865f526003825260405f20600160ff19825416179055335f5260028252610d958760405f20611a23565b5f87815260048352604080822033808452908552818320805460ff191660019081179091558a845285529120610dce9190600701611aa2565b610de5604051958695604087526040870191611ac5565b91848303908501523397611ac5565b82516001600160a01b03168282015591890191600101610d3a565b610e2490845f5285845f209182019101611a49565b8a610d30565b015190508d80610c91565b5f8481528c8120929190601f198516908e5b828210610e8757505091600193918560079897969410610e6f575b505050811b019055610d01565b01515f1960f88460031b161c191690558c8080610e62565b80600186978294978701518155019601940190610e47565b9192601f198416855f52835f20935f905b828210610eec575050908460019594939210610ed4575b505050811b019055610ca8565b01515f1960f88460031b161c191690558c8080610ec7565b80600186978294978701518155019601940190610eb0565b634e487b7160e01b5f52602160045260245ffd5b631028218160e31b5f5260045ffd5b632a2eb1cb60e01b5f5260045ffd5b90506020813d602011610f70575b81610f5160209383611658565b810103126101ed57516001600160a01b03811681036101ed5787610ad0565b3d9150610f44565b6040513d5f823e3d90fd5b63d572cd8d60e01b5f5260045ffd5b346101ed5760403660031901126101ed576020600435610fb06116ca565b815f526003835260ff60405f2054169182610fff575b82610fd8575b50506040519015158152f35b5f9081526001808552604090912001546001600160a01b0391821691161490508280610fcc565b8092505f526001835260ff600460405f20015460a81c1691610fc6565b346101ed5760203660031901126101ed57600435805f52600360205260ff60405f20541680611053575b6020906040519015158152f35b505f526001602052602060ff600460405f20015460a81c16611046565b346101ed5760403660031901126101ed5760043561108c6116ca565b815f52600360205260ff60405f205416156101de575f82815260016020819052604090912001546001600160a01b031633036101cf575f8281526006602090815260408083206001600160a01b0394909416808452939091528120805460ff191690559091907fed26a12a69f99798799967437d7162d514e513fcea1298caaa94fa4be5d5acbf9080a3005b346101ed5760403660031901126101ed576004356111346116ca565b90805f52600360205260ff60405f205416908161118a575b8161115f575b6020826040519015158152f35b90505f52600660205260405f209060018060a01b03165f52602052602060ff60405f20541682611152565b8091505f52600160205260ff600460405f20015460a81c169061114c565b346101ed5760203660031901126101ed57600435805f52600360205260ff60405f205416156101de575f81815260046020908152604080832033845290915290205460ff1615611333575f8181526004602090815260408083203384528252808320805460ff1916905583835260019091528120600701905b8154908181101561132b5761123681846116f6565b905460039190911b1c6001600160a01b03163314611258576001915001611221565b5f1982019182116113175761128c6112736112b093856116f6565b905460039190911b1c6001600160a01b031691846116f6565b81546001600160a01b0393841660039290921b91821b9390911b1916919091179055565b80548015611303575f1901906112c682826116f6565b81549060018060a01b039060031b1b19169055555b33907fbb7332ed2c9304ddee996cdb3fbef4348b3174f347b0c1fa5e53f96867e1321c5f80a3005b634e487b7160e01b5f52603160045260245ffd5b634e487b7160e01b5f52601160045260245ffd5b5050506112db565b63148fe22160e11b5f5260045ffd5b346101ed5760403660031901126101ed5761135b6116e0565b6001600160a01b03165f908152600260205260409020805460243591908210156101ed5760209161138b916116f6565b90549060031b1c604051908152f35b346101ed575f3660031901126101ed575f546040516001600160a01b039091168152602090f35b346101ed5760403660031901126101ed576004356113dd6116ca565b815f52600360205260ff60405f205416156101de575f82815260016020819052604090912001546001600160a01b031633036101cf576001600160a01b0316908115610996575f81815260016020818152604080842090920180546001600160a01b0319811687179091556001600160a01b031680845260029091529082209290915b835480821015611530578261147583876116f6565b90549060031b1c1461148a5750600101611460565b929391925f198101908111611317576114b76114a96114cd92856116f6565b90549060031b1c92846116f6565b819391549060031b91821b915f19901b19161790565b905580548015611303575f1901906114e582826116f6565b8154905f199060031b1b19169055555b825f52600260205261150a8160405f20611a23565b7f6e234a51fd403244cf2c0e859ca6834bd4624675b0e9d0221bfcb58ab3e854545f80a4005b50509091506114f5565b346101ed5760203660031901126101ed57600435805f52600360205260ff60405f205416156101de575f526001602052600760405f2001604051806020835491828152019081935f5260205f20905f5b8181106115eb57505050816115a0910382611658565b604051918291602083019060208452518091526040830191905f5b8181106115c9575050500390f35b82516001600160a01b03168452859450602093840193909201916001016115bb565b82546001600160a01b031684526020909301926001928301920161158a565b346101ed5760203660031901126101ed576004356001600160401b0381116101ed57366023820112156101ed57611650610a916020923690602481600401359101611694565b604051908152f35b90601f801991011681019081106001600160401b038211176107f657604052565b6001600160401b0381116107f657601f01601f191660200190565b9291926116a082611679565b916116ae6040519384611658565b8294818452818301116101ed578281602093845f960137010152565b602435906001600160a01b03821682036101ed57565b600435906001600160a01b03821682036101ed57565b805482101561170b575f5260205f2001905f90565b634e487b7160e01b5f52603260045260245ffd5b9181601f840112156101ed578235916001600160401b0383116101ed57602083818601950101116101ed57565b805180835260209291819084018484015e5f828201840152601f01601f1916010190565b906004821015610f045752565b90600182811c921680156117ab575b602083101461179757565b634e487b7160e01b5f52602260045260245ffd5b91607f169161178c565b9060405191825f8254926117c88461177d565b808452936001811690811561183357506001146117ef575b506117ed92500383611658565b565b90505f9291925260205f20905f915b8183106118175750509060206117ed928201015f6117e0565b60209193508060019154838589010152019101909184926117fe565b9050602092506117ed94915060ff191682840152151560051b8201015f6117e0565b90815181101561170b570160200190565b805182101561170b5760209160051b010190565b5f916101606040519061188d8183611658565b600a8252601f19013660208301375f925f925f5b8251600181018091116113175781101561191a578251811480156118f9575b6118cd575b6001016118a1565b936118db8685979397611866565b525f19811461131757600101936001840180851161131757936118c5565b50601760f91b6001600160f81b03196119128386611855565b5116146118c0565b509493925082835b61192d575050505090565b909192935f198501858111611317576119469085611866565b51858303611a07578351905b8082039182116113175761196582611679565b906119736040519283611658565b82825261197f83611679565b602083019390601f19013685375f5b8181106119d05750505051902060405190602082019283526040820152604081526119ba606082611658565b519020938015611317575f190192919083611922565b80830190818411611317576001916001600160f81b0319906119f2908b611855565b51165f1a611a008287611855565b530161198e565b611a118686611866565b515f1981019081116113175790611952565b805490600160401b8210156107f657816114b7916001611a45940181556116f6565b9055565b818110611a54575050565b5f8155600101611a49565b9190601f8111611a6e57505050565b6117ed925f5260205f20906020601f840160051c83019310611a98575b601f0160051c0190611a49565b9091508190611a8b565b80549190600160401b8310156107f6578261128c9160016117ed950181556116f6565b908060209392818452848401375f828201840152601f01601f1916010190565b805160068110611c2c57600519810181811161131757601760f91b906001600160f81b031990611b159085611855565b5116149182611bfb575b82611bca575b82611b99575b82611b68575b82611b3b57505090565b5f198201925090821161131757606160f81b916001600160f81b031991611b629190611855565b51161490565b9150600119810181811161131757603960f91b906001600160f81b031990611b909085611855565b51161491611b31565b9150600219810181811161131757606f60f81b906001600160f81b031990611bc19085611855565b51161491611b2b565b9150600319810181811161131757606760f81b906001600160f81b031990611bf29085611855565b51161491611b25565b9150600419810181811161131757606160f81b906001600160f81b031990611c239085611855565b51161491611b1f565b50505f90565b805f52600160205260ff600460405f20015460a01c166004811015610f04578015611d8d5760018114611d685760028114611d0857600314611c745750505f90565b805f526001602052602060018060a01b03600460405f20015416926024604051809581936370a0823160e01b835260018060a01b031660048301525afa918215610f78575f92611cd4575b505f526001602052600360405f200154111590565b9091506020813d602011611d00575b81611cf060209383611658565b810103126101ed5751905f611cbf565b3d9150611ce3565b50805f526001602052602060018060a01b03600460405f20015416926024604051809581936370a0823160e01b835260018060a01b031660048301525afa918215610f78575f92611cd457505f526001602052600360405f200154111590565b505f52600560205260405f209060018060a01b03165f5260205260ff60405f20541690565b50505060019056fea164736f6c634300081b000a",
  "linkReferences": {},
  "deployedLinkReferences": {}
}